:020000040800F2
:100000000000012031200008CF1E0008D91E000882
:10001000E31E0008ED1E0008F71E000800000000A7
:10002000000000000000000000000000011F0008A8
:10003000031F000800000000051F0008091F00083A
:10004000C91F0008CB1F0008C51F0008CD1F0008EE
:10005000CF1F0008D11F0008D31F0008D51F0008BC
:10006000D71F0008D91F0008DB1F0008191F000850
:100070001B1F00081D1F0008DD1F0008DF1F0008F0
:10008000E11F0008E31F0008E51F0008E71F000844
:1000900000000000E91F0008EB1F0008ED1F00082A
:1000A000EF1F0008F11F0008F31F0008F51F0008EC
:1000B000F71F0008F91F0008FB1F0008FD1F0008BC
:1000C000FF1F000801200008032000080520000889
:1000D000211F000807200008891F000809200008C8
:1000E0000B2000080D200008C71F00080F20000883
:1000F000112000080000000000000000132000088C
:1001000015200008172000081F1F000819200008EC
:100110001B2000081D2000081F20000821200008C7
:100120002320000825200008272000082920000897
:080130002B2000082D2000081F
:1002000000A1C0100100000049000000605800007B
:1002100010B5054C237833B9044B13B10448AFF340
:1002200000800123237010BDD401002000000000D5
:10023000344F000808B5034B1BB103490348AFF323
:10024000008008BD00000000D8010020344F0008E5
:10025000034613F8012B002AFBD1181A0138704706
:1002600001F0FF01102A2BDB10F0070F08D010F867
:10027000013B013A8B422DD010F0070F42B3F6D16B
:10028000F0B441EA012141EA014122F007047FF084
:1002900000070023F0E80256083C85EA010586EADB
:1002A000010685FA47F5A3FA87F586FA47F6A5FA17
:1002B00087F68EB9EED1F0BC01F0FF0102F0070223
:1002C00032B110F8013B013A83EA010313B1F8D1CE
:1002D0000020704701387047002D06BF35460338AF
:1002E000073815F0010F07D1013015F4807F02BFE8
:1002F000013015F4C03F0130F0BC0138704700BF39
:1003000081F0004102E000BF83F0004330B54FEAC6
:1003100041044FEA430594EA050F08BF90EA020F33
:100320001FBF54EA000C55EA020C7FEA645C7FEAC6
:10033000655C00F0E2804FEA5454D4EB5555B8BFE9
:100340006D420CDD2C4480EA020281EA030382EA5A
:10035000000083EA010180EA020281EA0303362DEC
:1003600088BF30BD11F0004F4FEA01314FF4801CBF
:100370004CEA113102D0404261EB410113F0004FD1
:100380004FEA03334CEA133302D0524263EB430388
:1003900094EA050F00F0A780A4F10104D5F1200E26
:1003A0000DDB02FA0EFC22FA05F2801841F1000181
:1003B00003FA0EF2801843FA05F359410EE0A5F155
:1003C00020050EF1200E012A03FA0EFC28BF4CF086
:1003D000020C43FA05F3C01851EBE37101F000453C
:1003E00007D54FF0000EDCF1000C7EEB00006EEB49
:1003F0000101B1F5801F1BD3B1F5001F0CD34908D3
:100400005FEA30004FEA3C0C04F101044FEA445229
:1004100012F5800F80F09A80BCF1004F08BF5FEAB0
:10042000500C50F1000041EB045141EA050130BD90
:100430005FEA4C0C404141EB0101013C28BFB1F5A2
:10044000801FE9D291F0000F04BF01460020B1FAED
:1004500081F308BF2033A3F10B03B3F120020CDAC0
:100460000C3208DD02F1140CC2F10C0201FA0CF09E
:1004700021FA02F10CE002F11402D8BFC2F1200C03
:1004800001FA02F120FA0CFCDCBF41EA0C019040B9
:10049000E41AA2BF01EB0451294330BD6FEA040402
:1004A0001F3C1CDA0C340EDC04F11404C4F12002ED
:1004B00020FA04F001FA02F340EA030021FA04F3FF
:1004C00045EA030130BDC4F10C04C4F1200220FA56
:1004D00002F001FA04F340EA0300294630BD21FA94
:1004E00004F0294630BD94F0000F83F4801306BF5A
:1004F00081F480110134013D4EE77FEA645C18BF4E
:100500007FEA655C29D094EA050F08BF90EA020FE4
:1005100005D054EA000C04BF1946104630BD91EADC
:10052000030F1EBF0021002030BD5FEA545C05D1DF
:100530004000494128BF41F0004130BD14F580041E
:100540003CBF01F5801130BD01F0004545F0FE4192
:1005500041F470014FF0000030BD7FEA645C1ABFC7
:10056000194610467FEA655C1CBF0B46024650EAFE
:10057000013406BF52EA033591EA030F41F400212A
:1005800030BD00BF90F0000F04BF0021704730B5B0
:100590004FF4806404F132044FF000054FF0000185
:1005A00050E700BF90F0000F04BF0021704730B546
:1005B0004FF4806404F1320410F0004548BF40421B
:1005C0004FF000013EE700BF42004FEAE2014FEA70
:1005D00031014FEA02701FBF12F07F4393F07F4F4B
:1005E00081F06051704732F07F4208BF704793F04E
:1005F0007F4F04BF41F40021704730B54FF4607461
:1006000001F0004521F000411CE700BF50EA010263
:1006100008BF704730B54FF000050AE050EA01020C
:1006200008BF704730B511F0004502D5404261EB7C
:1006300041014FF4806404F132045FEA915C3FF4BD
:10064000D8AE4FF003025FEADC0C18BF03325FEA5A
:10065000DC0C18BF033202EBDC02C2F1200300FA0B
:1006600003FC20FA02F001FA03FE40EA0E0021FA30
:1006700002F11444BDE600BF70B54FF0FF0C4CF41E
:10068000E06C1CEA11541DBF1CEA135594EA0C0FD0
:1006900095EA0C0F00F0DEF82C4481EA030621EA0B
:1006A0004C5123EA4C5350EA013518BF52EA033546
:1006B00041F4801143F4801338D0A0FB02CE4FF0F8
:1006C0000005E1FB02E506F00042E0FB03E54FF028
:1006D0000006E1FB03569CF0000F18BF4EF0010E20
:1006E000A4F1FF04B6F5007F64F5407404D25FEA1C
:1006F0004E0E6D4146EB060642EAC62141EA5551CF
:100700004FEAC52040EA5E504FEACE2EB4F1FD0C10
:1007100088BFBCF5E06F1ED8BEF1004F08BF5FEA8E
:10072000500E50F1000041EB045170BD06F0004640
:1007300046EA010140EA020081EA0301B4EB5C04ED
:10074000C2BFD4EB0C0541EA045170BD41F48011E5
:100750004FF0000E013C00F3AB8014F1360FDEBF0A
:10076000002001F0004170BDC4F10004203C35DAE6
:100770000C341BDC04F11404C4F1200500FA05F369
:1007800020FA04F001FA05F240EA020001F000420A
:1007900021F0004110EBD37021FA04F642EB060180
:1007A0005EEA430E08BF20EAD37070BDC4F10C04AA
:1007B000C4F1200500FA04F320FA05F001FA04F26E
:1007C00040EA020001F0004110EBD37041F100015A
:1007D0005EEA430E08BF20EAD37070BDC4F1200565
:1007E00000FA05F24EEA020E20FA04F301FA05F2CD
:1007F00043EA020321FA04F001F0004121FA04F275
:1008000020EA020000EBD3705EEA430E08BF20EA44
:10081000D37070BD94F0000F0FD101F0004640007E
:1008200041EB010111F4801F08BF013CF7D041EA00
:10083000060195F0000F18BF704703F00046520004
:1008400043EB030313F4801F08BF013DF7D043EAD5
:100850000603704794EA0C0F0CEA135518BF95EA8B
:100860000C0F0CD050EA410618BF52EA4306D1D112
:1008700081EA030101F000414FF0000070BD50EA31
:10088000410606BF1046194652EA430619D094EABB
:100890000C0F02D150EA013613D195EA0C0F05D1A5
:1008A00052EA03361CBF104619460AD181EA0301F9
:1008B00001F0004141F0FE4141F470014FF00000B1
:1008C00070BD41F0FE4141F4780170BD70B54FF04C
:1008D000FF0C4CF4E06C1CEA11541DBF1CEA1355CC
:1008E00094EA0C0F95EA0C0F00F0A7F8A4EB0504AE
:1008F00081EA030E52EA03354FEA013100F08880A5
:100900004FEA03334FF0805545EA131343EA12636D
:100910004FEA022245EA111545EA10654FEA002622
:100920000EF000419D4208BF964244F1FD0404F5DB
:10093000407402D25B084FEA3202B61A65EB030537
:100940005B084FEA32024FF480104FF4002CB6EBF4
:10095000020E75EB030E22BFB61A754640EA0C0074
:100960005B084FEA3202B6EB020E75EB030E22BFB4
:10097000B61A754640EA5C005B084FEA3202B6EBF5
:10098000020E75EB030E22BFB61A754640EA9C00B4
:100990005B084FEA3202B6EB020E75EB030E22BF84
:1009A000B61A754640EADC0055EA060E18D04FEA42
:1009B000051545EA16754FEA06164FEAC30343EAE2
:1009C00052734FEAC2025FEA1C1CC0D111F4801FAF
:1009D0000BD141EA00014FF000004FF0004CB6E7A8
:1009E00011F4801F04BF01430020B4F1FD0C88BF47
:1009F000BCF5E06F3FF6AFAEB5EB030C04BFB6EB52
:100A0000020C5FEA500C50F1000041EB045170BD44
:100A10000EF0004E4EEA113114EB5C04C2BFD4EB71
:100A20000C0541EA045170BD41F480114FF0000EF5
:100A3000013C90E645EA060E8DE60CEA135594EA71
:100A40000C0F08BF95EA0C0F3FF43BAF94EA0C0F74
:100A50000AD150EA01347FF434AF95EA0C0F7FF4E9
:100A600025AF104619462CE795EA0C0F06D152EA3D
:100A700003353FF4FDAE1046194622E750EA410621
:100A800018BF52EA43067FF4C5AE50EA41047FF432
:100A90000DAF52EA43057FF4EBAE12E74FF0FF3C97
:100AA00006E000BF4FF0010C02E000BF4FF0010C68
:100AB0004DF804CD4FEA410C7FEA6C5C4FEA430CE1
:100AC00018BF7FEA6C5C1BD001B050EA410C0CBF30
:100AD00052EA430C91EA030F02BF90EA020F002092
:100AE000704710F1000F91EA030F58BF994208BFF9
:100AF00090422CBFD8176FEAE37040F001007047B6
:100B00004FEA410C7FEA6C5C02D150EA013C07D10C
:100B10004FEA430C7FEA6C5CD6D152EA033CD3D057
:100B20005DF8040B704700BF8446104662468C4651
:100B30001946634600E000BF01B5FFF7B7FF002884
:100B400048BF10F1000F01BD4DF808EDFFF7F4FFAD
:100B50000CBF012000205DF808FB00BF4DF808ED38
:100B6000FFF7EAFF34BF012000205DF808FB00BF5B
:100B70004DF808EDFFF7E0FF94BF012000205DF87D
:100B800008FB00BF4DF808EDFFF7CEFF94BF012032
:100B900000205DF808FB00BF4DF808EDFFF7C4FF2B
:100BA00034BF012000205DF808FB00BF4FEA410C74
:100BB0007FEA6C5C02D150EA013C0AD14FEA430C57
:100BC0007FEA6C5C02D152EA033C02D14FF0000094
:100BD00070474FF0010070474FEA410212F50012D2
:100BE00015D211D56FF47873B3EB625212D94FEA74
:100BF000C12343F0004343EA505311F0004F23FA5E
:100C000002F018BF404270474FF00000704750EAB2
:100C1000013005D111F0004008BF6FF0004070476F
:100C20004FF00000704700BF10B50144002310F8DA
:100C3000012B88421C4683EA0203F8D1131B584259
:100C4000584110BD006800BA70474FF0B04382B001
:100C5000DA6C0243DA64DB6C18400190019B02B04D
:100C600070470000074B0144884203D1DA695206FD
:100C7000FCD5704710F8012B9A62DA691206FCD590
:100C8000F2E700BF00380140BFF34F8F0549064B24
:100C9000CA6802F4E0621343CB60BFF34F8F00BF1A
:100CA000FDE700BF00ED00E00400FA0508B5044AC6
:100CB000116813685B1A642BFBD9FFF7E5FF00BFCF
:100CC0009C050020034BD3F8F030DB0700D500BEB5
:100CD000704700BF00ED00E0064AD36800F007014E
:100CE00023EA010343EA5010D060936819439160EE
:100CF000704700BF000400580023092803D840EAC9
:100D00000310C0B270470A380133C0B2F5E74FF0A4
:100D1000B0431868C0F3005070474FF0B0431868F4
:100D2000C0F3C000704700004FF0B04238B5916882
:100D300001F00C01082951D017D889B3042900F01B
:100D40008C80FFF7EAFF46490246002876D1FFF77C
:100D5000E4FF4FF0B043012816BFD3F894201B687E
:100D6000C2F3032251F822302AE00C29E9D1D368DA
:100D700003F00303022B5FD0032B37D0FFF7CDFF27
:100D8000374C014600284AD1FFF7C7FF012816BF9C
:100D9000D2F894101368C1F3032154F821202CE0F9
:100DA000FFF7BBFF2E4D044660B9FFF7B6FF0128E1
:100DB00016BFD2F894401368C4F3032455F82430C6
:100DC000184638BDFFF7A9FF01280ABF1168D2F8FD
:100DD0009430C1F3031155F82130F1E7FFF797FF85
:100DE000204A214B012818BF1346E9E7FFF78FFF80
:100DF0001C4A1D4B012808BF1A464FF0B040C3687B
:100E0000C168C068C3F306235343400FC1F3021205
:100E100001320130B3FBF2F3B3FBF0F3D0E7FFF79D
:100E20007CFF01280BBF1368D2F89430C3F303137F
:100E3000002354F82320E0E70B4ADEE7FFF76DFFBD
:100E40004FF0B04301280BBF1B68D3F89430C3F3B5
:100E50000313002351F82330B2E7034BB0E700BF80
:100E6000245000080048E8010024F4004FF0B0438B
:100E700010B59968DB6811F00C0105D00C295AD126
:100E800003F00303012B64D1FFF747FF334C024605
:100E9000002841D1FFF741FF4FF0B043012816BFB2
:100EA000D3F894201B68C2F3032254F822200029AF
:100EB0000CBF134600234FF0B040816801F00C01D5
:100EC0000C291ED1C36803F00303022B44D0032B6B
:100ED00006D1FFF71CFF224A224B012808BF1A4601
:100EE0004FF0B040C368C168C068C3F306235343E2
:100EF000400FC1F3021201320130B3FBF2F3B3FB36
:100F0000F0F34FF0B04218499268C2F3031251F85F
:100F10002200B3FBF0F010BDFFF7FFFE4FF0B0432F
:100F200001280BBF1B68D3F89430C3F303130023CD
:100F300054F82320BBE7042902D10A4B0022BAE768
:100F4000082906D1FFF7E3FE0128F6D0044B002262
:100F5000B1E700221346AEE7024AC1E72450000879
:100F60000048E8010024F400B04F0008094B0A498A
:100F7000DA6822F02002DA600868DA68920601D5A1
:100F8000002070470A68121AB2F57A7FF5D903205B
:100F9000704700BF002800409C05002000F00700BB
:100FA000C0F10702031D042A28BF0422062B4FF0BC
:100FB000FF3303FA02F38CBF0338002021EA030158
:100FC00001FA00F07047000038B5FFF74FFF4FF40B
:100FD0007A73B0FBF3F00138B0F1807F16D24FF096
:100FE000E0230B4D5861F02285F8232000240722CE
:100FF0009C611A61E8680F21C0F30220FFF7CEFF61
:101000000001C0B285F82300204638BD0120FCE76E
:1010100000ED00E007B5002814BF79231F238DF8E9
:101020000730054B9B6801211B680DF107009847AD
:1010300003B05DF804FB00BFF0010020F0B56D4C7B
:101040006368B3F5907F24BF002363606168631811
:101050000131187360786160C1B000284AD101295C
:1010600005D1237B7F2B36D16060012006E032D989
:10107000237B627B1A44FF2A05D0606041B0BDE843
:10108000F040FFF7C7BF022B237026D903F0DF0221
:10109000112A22D0212B20D0433B5D425D41002606
:1010A000284666706660FFF7B5FFA5B12578012375
:1010B0009D42637013D0022D1AD065B94E4A106854
:1010C000516812896B4603C31A80A3680A211B6802
:1010D00068469847657041B0F0BD0125DFE7474B92
:1010E0000093A36804211B68684698476670F2E77E
:1010F000434BF5E72378312B65D013D8112B1ED045
:10110000212BE8D10529E6D13E48FFF78DFD58B3E4
:101110000120FFF77FFF3B48FFF794FDA3681B69A1
:10112000984738E0432BD6D10229257B37D1FF2DB4
:1011300035D1A3682846DB689847012015E00529CA
:101140000BD130480521FFF76FFD054600288CD1F3
:10115000FFF760FF65706560BDE70729BBD1637C61
:10116000A27C1344FF2B03D00020FFF753FF12E0B3
:101170000120FFF74FFF657C6DB12248FFF762FD4C
:10118000A36801355B6869462A469847A3682946E3
:101190001B68684698470023637063609BE7EB1CFD
:1011A000994298D11748FFF73FFD0028DCD0164F31
:1011B00001350026A36817F8010BDB680136984754
:1011C000B542F7D8B9E70529BBD0657C05F108031E
:1011D000994280D10D48E91CFFF726FD0028C3D0B5
:1011E00008480B49FFF72EFDA3686A1C9B689847C7
:1011F000A3E700BFF0010020504F00081000007965
:1012000001049779FC010020FD010020010200206B
:1012100002020020134A144910B514680B69DB035D
:1012200013D40B69D80744BF012008614CF2FA318E
:101230000B4011D10C49086910F480200BD01368C1
:101240001B1BB3F57A7FF6D304E013681B1BB3F5C1
:101250007A7FE3D3032010BD034A1361034A0120C0
:101260005360F8E79C0500200040005884050020EA
:10127000034B5A6942F000425A615B69704700BFF4
:1012800000400058054B5A69002A05DA044A9A6062
:1012900002F188329A605B69704700BF00400058D5
:1012A000230167451028F8B501D0FF282AD1164D33
:1012B000FFF7E8FF2B78012B20D001232B700023B0
:1012C0006B60FFF7A7FFB8B9104C114F8026636918
:1012D00023F47E7333433B436361FFF79BFF18B9ED
:1012E0000836B6F5787FF2D1636923F47E7323F074
:1012F000020363612368236800232B70BDE8F84074
:10130000FFF7B6BFF8BD00BF8405002000400058BD
:1013100002000100F7B51C4F3B7804460D46164607
:1013200063B91A4B1A4A196891421CD19A68009203
:101330005B68184A2021384603F014FCB4F1006FB2
:1013400009D3154B9C421CD304F17843A3F57E339B
:10135000B3F5006F15D332462146284603B0BDE8E9
:10136000F04002F097B90D49384603F02FFCE5E74D
:1013700003F01F02BA5CEA540133B342F8D103B060
:10138000F0BD0023F9E700BF2C0500200082000813
:1013900000A1C010744F000800800008914F0008A1
:1013A0002DE9F041104C1F462378012B064690464C
:1013B00018D00123237000236360FFF72BFF78B957
:1013C0000A4D6B6943F001036B61C6F80080BFF3FF
:1013D0006F8F7760FFF71EFF6B6923F001036B616E
:1013E00000232370BDE8F0818405002000400058F0
:1013F000204B9842F7B505460E46144638D382185E
:1014000003F558339A4233D8FFF73CFF10F0070733
:101410002ED1E31B072B05EB070C06EB07021CD8AC
:10142000E20824F007016FF00703314403FB024296
:1014300024F007062E445AB1D6E900456846CDE9A6
:10144000004502F027F9DDE900233046FFF7A8FF49
:1014500003B0BDE8F040FFF70BBFF05951686B4691
:1014600003C36046DDE90023FFF79AFF0837D0E7A2
:1014700003B0F0BD0080000830B5046891FAA1F314
:10148000B3FA83F303255B0005FA03F324EA0303AD
:1014900091FAA1F1B1FA81F1490002FA01F119437F
:1014A000016030BD2DE9F8430E460D6895FAA5F5AB
:1014B0004FF00109B5FA85F503274FF00F0834689E
:1014C00034FA05F301D1BDE8F88309FA05F10C40BF
:1014D00054D072682146FFF7CFFF7268531E012B6C
:1014E0001BD8836894FAA4F1B1FA81F1490007FA94
:1014F00001F123EA010194FAA4FCB368BCFA8CFC64
:101500004FEA4C0C03FA0CF30B4383604168F36819
:1015100021EA040163430B434360C36894FAA4F1D6
:10152000B1FA81F1490007FA01F123EA010194FAC5
:10153000A4FC3369BCFA8CFC4FEA4C0C03FA0CF3A4
:101540000B43022AC36016D1FF2CD6F814C017D85B
:10155000016A94FAA4F3B3FA83F39B0008FA03F345
:1015600021EA030194FAA4F3B3FA83F39B000CFA83
:1015700003F30B4303622146FFF77EFF01359EE72D
:10158000D0F824E0210A91FAA1F3B3FA83F39B0087
:1015900008FA03F32EEA030391FAA1F1B1FA81F1FB
:1015A00089000CFA01F10B434362E4E72DE9F04FA7
:1015B0004FF0B04491B0A36C5D4D5E4E43F0040318
:1015C000A364A36C03F004030293029BA36C43F097
:1015D0000103A364A36C03F001030193019B4FF08B
:1015E0000063AB60E8680021C0F30220FFF7D6FC7F
:1015F0000001C0B286F80B034FF400633360E86863
:101600000021C0F30220FFF7C9FC0001C0B286F838
:101610000C034FF480533360E8680021C0F30220CC
:10162000FFF7BCFC0001C0B286F80D034FF4005375
:101630003360EA68404B22F4E0621204120C134358
:10164000EB60FFF713FCFFF7BFFCA36823F4004334
:10165000A3603A4B1A6822F007021A601A68500712
:10166000FCD1374A136823F4C06343F4007313605A
:101670004FF0B0431A6842F001021A601A689107ED
:10168000FCD51A682E4942F008021A601A6822F046
:10169000F00242F060021A605A6822F47F425A60F7
:1016A0000A6842F480720A60D3F8902022F018028F
:1016B000C3F89020D3F8902042F00102C3F89020A4
:1016C0004FF0B043D3F890209207FBD51A6842F050
:1016D00004021A609A6822F003029A604FF0B04345
:1016E0009E6816F00C06FBD19A68164F22F0F002A5
:1016F0009A60D3F8082122F00F02C3F808219A68F3
:1017000022F4E0629A609A6822F460529A600C4A6D
:101710000D4B3B60136823F4C06343F48063136094
:10172000FFF752FC054688B1FFF7CCFAFFF7ACFA99
:1017300000ED00E000E100E00003FA050040005881
:10174000000400580000002000093D000120FFF7C0
:101750007CFA0220FFF779FA0420FFF776FA29468F
:10176000102206A800F0B0FC03234FF6FF7ECDE95F
:1017700004E3012307938D4BD3F8F030DB070ED43D
:1017800004A94FF09040FFF78DFE04A900F580609A
:10179000FFF788FE04A900F58060FFF783FEDFF8FD
:1017A00010824FF090444FF40043C8F828304FF4B3
:1017B000007A04234FF480691022C4F818A0002195
:1017C000A3610CA8C8F8189000F07EFC4FF0010B44
:1017D0004FF400430AA94046CDE90A3BFFF762FEF9
:1017E000042320460AA90A93FFF75CFE0AA9CDF854
:1017F00028A0CDF834B0FFF755FE0AA940464FF0B7
:10180000000ACDF82890FFF74DFE20460AA9CDE941
:101810000ABACDF838A0FFF745FE08230AA94046CA
:101820000A93CDF838A0FFF73DFE20460AA9614C87
:10183000CDF82890FFF736FE5F4BC4F818A0C4E936
:10184000003A4FF01F0C40F2FF33C4E902C34FF0DF
:101850008043C4E9073A4FF48073636294F82D30F3
:10186000C4E904AA03F0FF02002B4CD14FF0B043AF
:1018700084F82C20D3F8903003F44073B3F5807FC4
:1018800030D04E4B1A68D00506D41A6842F48072E4
:101890001A601A68D105FCD54FF0B043D3F89020F8
:1018A00042F48032C3F89020D3F8902022F48032A2
:1018B000C3F89020D3F8902022F01802C3F89020AB
:1018C000D3F8902042F00102C3F89020D3F8902082
:1018D0009207FBD5D3F8902022F4407242F4807234
:1018E000C3F890204FF0B043D3F8902042F4004268
:1018F000C3F890209A6D42F480629A659B6D03F460
:1019000080630393039B022384F82D302A4BCA2261
:101910005A6253225A62DA6850062AD5264B9A69CF
:1019200022F08E6222F040029A619A699A61244AFA
:101930001A61DA68A16A22F4F8520A4342F480720A
:10194000DA60DA6822F08002DA609A6991063BD5A3
:101950009A6922F020029A61FFF708FB10B1032078
:1019600084F82D00144A936943F02003936168B909
:101970002FE0DA68134942F08002DA6008684FF01D
:10198000030CDA6852060ED4032D03D10A4BFF2252
:101990005A62C9E60A68121AB2F57A7F84BF84F8DF
:1019A0002DC00325EDE7002DF0D1B7E700ED00E0F5
:1019B000000400484C0500200028004000040058A6
:1019C000FF031F009C050020FFF7D0FA002840F01D
:1019D0009880D4E90702AD4B02439969606921F010
:1019E000604102430A43FF259A615D6294F82C101E
:1019F0000122914284F82D203FF496AE0220CA21A4
:101A000084F82D005962532159629969DFF880C228
:101A100041F080019961DCF8801041F48021CCF81C
:101A200080105D6284F82D2084F82C2084F82D002D
:101A3000DA6802F44072B2F5807F66D000209B69BC
:101A4000FFF75AF9030243EA0043034343EA006005
:101A50008E4BCA21596253215962996921F48851E8
:101A60009961B2F5807F4FF000054FF001014FF012
:101A70000052D96518BF18645A641D67226B8449E7
:101A800042F0010222639A6942F488529A61D1F8C5
:101A9000802042F40032C1F88020FF225A620123E4
:101AA00084F82D307B4B84F82C50D8682946C0F33D
:101AB0000220FFF773FA784B0001C0B283F82A03C3
:101AC0004FF480625A60754BD3F80021C3F800517F
:101AD000734B9A4250D0734B734A196891424BD161
:101AE000DA6802F1006303F500431C686F4B9C4207
:101AF0001ED0B2F5583F3FD2DFF8B4C14FF6FF73A6
:101B000012E0032384F82D3040E70020A0E705F120
:101B1000006000F500401902007880EA132389B2C2
:101B20003CF8133001354B40AA42F0D19C4223D1FE
:101B3000604A136803B303F07F43B3F1005F1BD126
:101B40005368934218D354490120730906F01F02C9
:101B5000203300FA02F241F82320BFF34F8FBFF386
:101B60006F8F01363E2EF0D14A4A524B9360D3E933
:101B7000002382F3088818473B68082B75D94FF07B
:101B8000B042136823F0F00343F08003136002F5C2
:101B90008042136823F0070343F002031360464BAF
:101BA0003B60FFF711FA00287FF4BEAD434C444F71
:101BB0004FF4007C0023C4E900C3C4E902334FF0B2
:101BC000B0450220D5F8883023F00303C5F88830EB
:101BD0002B6E43F480432B662B6E03F480430493F7
:101BE000049BFFF732F80FCF0AAE0FC697E8030049
:101BF000802386E8030033480A930AA9FFF752FCC2
:101C000040230AA90A93FFF74DFC2F4B1A68D2070D
:101C10006BD419682D4A0A4042F00C021A605A68C7
:101C200022F440525A609A6822F440729A60D5F8C1
:101C30008830274A03F0030343F4403393424BD0E8
:101C4000B3F1031F00F0DD80013A934240F0E180E0
:101C5000FFF76AF8002843D04FF4E13300F5614004
:101C6000B0FBF3F0184BD8603AE09FD0194A1368E4
:101C700023F0070343F0020313604FF0B0421368F0
:101C800023F0F00343F0800388E700BF0028004002
:101C90000008005800ED00E000E100E000B0004066
:101CA000040302010082000800A1C010785634121B
:101CB00064500008008000080024F4001C03002089
:101CC0005C4F00080004004800380140F369FFEF52
:101CD00002000300004000582B685F0500F1AB8054
:101CE0006E4AD36A23F00F03D3626D4A52E8003F75
:101CF00023F0604342E800310029F7D152E8003F69
:101D000023F0606342E800310029F7D1634B196882
:101D100021F000511960596821F490415960996887
:101D200021F02A019960196841F001011960D9690F
:101D30008D02FCD5D9694802F9D55A4B002183F8A8
:101D4000241310215960554951E8003F43F0200306
:101D500041E800300028F7D152E8003F43F001038A
:101D600042E80035002DF7D14F4E504B504AD6F87F
:101D70000080504F5D705D609A604FF0904940F672
:101D8000B83A3B691A0763D44B4C236843F4807319
:101D900023604FF0B04301209A6D42F480629A654F
:101DA0009B6D03F480630A930A9BA36823F00103ED
:101DB000A360A36823F00403A3600723C4F888008A
:101DC000A3614FF48073A3614FF40063A361FEF736
:101DD00083FF3B691B075ED40420FEF77DFFA368E9
:101DE000364A23F40073A360236843F0070323609B
:101DF000136943F00403136130BF002011B0BDE844
:101E0000F08FD5F890309E077FF56AAF4FF4004011
:101E100022E7FEF789FFAA682949AB68C2F30312DB
:101E2000C3F3C22351F82220B0FBF2F0254A52F846
:101E30002330D8400EE724480EE7D9F81030D907F0
:101E400001D435689DE733685B1B534599D96DE430
:101E50003368A3EB0803B3F5FA7F0AD9D6F80080FC
:101E60007B691A04DB4302F0806203F4806313434E
:101E7000BB61E268002AE0D0A368E1180133087C66
:101E80002168B3FBF1FC013A01FB1C33A360E26063
:101E9000FFF7D4F8EDE784209FE700BF003801404A
:101EA0000838014000E100E09C050020F00100201E
:101EB00010500008000400480004005800ED00E045
:101EC000B04F0008F04F00080024F400704708B538
:101ED000FEF7F8FEFEF7D8FE08B5FEF7F3FEFEF7B4
:101EE000D3FE08B5FEF7EEFEFEF7CEFE08B5FEF710
:101EF000E9FEFEF7C9FE08B5FEF7E4FEFEF7C4FEF4
:101F00007047704770470000024A1368013313603E
:101F1000704700BF9C0500207047704770477047AE
:101F2000174BDA69910606D5596A164BD8681A68B4
:101F300090420DD37047DA69120718D4DA69500756
:101F400018D4DA69910717D4DA69D20716D4704722
:101F50005A681A4411745A6819680132B2FBF1F0D8
:101F600001FB10225A60DA680132DA6070470822F9
:101F70001A6270470422FBE70222F9E70122F7E721
:101F8000003801401C0300200D4BDA69910601D591
:101F90005B6A7047DA69120709D4DA69500709D415
:101FA000DA69910708D4DA69D20707D470470822A2
:101FB0001A6270470422FBE70222F9E70122F7E7E1
:101FC0000080004070477047704770477047704707
:101FD0007047704770477047704770477047704749
:101FE0007047704770477047704770477047704739
:101FF0007047704770477047704770477047704729
:102000007047704770477047704770477047704718
:102010007047704770477047704770477047704708
:1020200070477047704770477047704770470000AF
:102030000D488546FFF74AFF0C480D490D4A00231D
:1020400002E0D458C4500433C4188C42F9D30A4A6D
:102050000A4C002301E013600432A242FBD300F0DB
:102060000FF8FFF7A3FAFEE70000012000000020B0
:10207000D40100208C560008D4010020B4050020B3
:1020800070B50D4D0D4C641BA4100026A64209D15D
:102090000B4D0C4C02F04EFF641BA4100026A64210
:1020A00005D170BD55F8043B98470136EEE755F869
:1020B000043B98470136F2E784560008845600082E
:1020C000845600088856000802440346934200D113
:1020D000704703F8011BF9E72DE9F04788B0002BA2
:1020E0001F461446B8BF03F10043129A109DDDF855
:1020F0004CA0B6BF1F4600232D231370149B23F062
:102100002008B8F1460F05D0B8F1450F00D10135D0
:10211000022300E0032307AA049206AACDE902A243
:10212000CDE9003522463B4600F0BAFCB8F1470F36
:10213000064602D1119BDB0722D5B8F1460F06EB0C
:10214000050910D13378302B0AD100220023204614
:102150003946FEF7F9FC18B9C5F10105CAF8005077
:10216000DAF8003099440022002320463946FEF771
:10217000EBFC08B1CDF81C903022079B4B4507D3F0
:10218000079B159A9B1B3046136008B0BDE8F0878B
:10219000591C07911A70F0E7F7B503460029B8BF3C
:1021A000494203F8022BB4BF2D222B220929427089
:1021B0002ADD0DF10704A4460A27A6460A4691FB2C
:1021C000F7F607FB16153035632A04F1FF340EF8D5
:1021D000015C3146F1DC3031AEF1020504F8011C3E
:1021E000441C294661450AD30DF10902A2EB0E02F7
:1021F000654588BF00221344181A03B0F0BD11F8DA
:10220000012B04F8012FEDE7302330318370C170CA
:10221000031DF1E72DE9F04F91B00C46DDF8688021
:1022200016461F46054601F029FA03680993184629
:10223000FEF70EF800230E93D8F800300A9007330B
:1022400023F0070303F1080294F81890D4F800B0C3
:10225000C8F80020D3E90023C4E91223D4E9128A84
:102260002AF000430B930B999C4B4FF0FF324046F2
:10227000FEF79CFC70BB994B0B994FF0FF32404628
:10228000FEF776FC30BB0022002340465146FEF7A5
:1022900065FC10B12D2384F84330914B9148B9F17E
:1022A000470F94BF98468046032323612BF0040315
:1022B00023604FF0000A009733460FAA21462846B4
:1022C00000F0D2F9013040F08F804FF0FF3011B0B4
:1022D000BDE8F08F4246534640465146FEF766FC45
:1022E00040B1BAF1000FBCBF2D2384F843307E48C3
:1022F0007E4BD4E763685A1C09F0DF0142D1062304
:102300006360002206920EAACDE904920DAA4BF456
:10231000806303920DF13302CDE9013223606368DB
:1023200000934246534628460B91FFF7D5FE0B9982
:10233000472980460D9908D1C81C02DB6368994281
:1023400040DDA9F102095FFA89F9B9F1650F1FD8DB
:1023500001394A4604F150000D91FFF71DFF0E9A16
:102360001318012A8246236102DC2268D20701D5B4
:10237000013323619DF83330002B9CD02D2384F84A
:10238000433098E74729BCD1002BBAD10123B7E7E6
:10239000B9F1660F18D1002963680BDD216113B90B
:1023A0002268D00702D501330B442361A1654FF0A9
:1023B000000ADFE713B92268D20701D50233F4E738
:1023C0000123F2E74FF067090E9B994205DB236872
:1023D0002161D807EAD54B1CE7E70029D4BFC1F13A
:1023E000020201221344E0E723685A0507D4236957
:1023F000424631462846B84701302BD165E7B9F14E
:10240000650F40F2DC80D4E9120100220023FEF7C0
:102410009BFB002833D0364A012331462846B84773
:1024200001303FF452AFDDE90D239A4202DB23680D
:10243000D8070FD5DDE9092331462846B8470130D2
:102440003FF443AF4FF0000804F11A090E9B013B23
:10245000434509DC23689B0700F10181E0680F9B7D
:102460009842B8BF184632E701234A46314628460B
:10247000B84701303FF429AF08F10108E6E70D9BAA
:10248000002B37DC1A4A012331462846B847013071
:102490003FF41BAFDDE90D23134302D12368D907B5
:1024A000D8D5DDE9092331462846B84701303FF445
:1024B0000CAF4FF0000904F11A0A0D9B5B424B452B
:1024C00001DC0E9B94E70123524631462846B8476B
:1024D00001303FF4FAAE09F10109EEE7FFFFEF7FAB
:1024E000685200086C5200087452000870520008CC
:1024F000785200080E9AA36D9A42A8BF1A46002A85
:10250000914637DC4FF0000B29EAE97904F11A0211
:10251000D4F858A0AAEB09035B4533DCDDE90D23B1
:102520009A423BDB2368DA0738D40E9B0D99A3EB64
:102530000A02A3EB01099145A8BF9146B9F1000F2A
:1025400034DC4FF0000829EAE97904F11A0ADDE9E0
:102550000D239B1AA3EB090343457FF77BAF0123B0
:10256000524631462846B84701303FF4AEAE08F136
:102570000108ECE71346314642462846B847013089
:10258000C0D1A2E60123314628460B92B84701305C
:102590003FF49BAE0B9A0BF1010BB9E7DDE9092380
:1025A00031462846B8470130BFD18EE64B4608EB8E
:1025B0000A0231462846B8470130C2D185E60E9A54
:1025C000012A01DCDB0737D5012342463146284684
:1025D000B84701303FF479AEDDE90923314628469A
:1025E000B84701303FF471AED4E912010022002354
:1025F000FEF7AAFAD8B90E9B08F10102013B314659
:102600002846B84701300ED15FE601234A463146DD
:102610002846B84701303FF458AE08F101080E9B38
:10262000013B4345F1DC534604F15002E1E64FF033
:10263000000804F11A09F2E701234246DFE701230B
:102640004A4631462846B84701303FF43EAE08F1CD
:102650000108E3680F995B1A4345F0DCFEE64FF092
:10266000000804F11909F4E72DE9F04716469946E8
:102670008A680B69DDF820809342B8BF1346336047
:1026800091F8432007460C460AB1013333602368B2
:10269000990642BF336802333360256815F006059A
:1026A00006D104F1190AE36832689B1AAB4226DCB2
:1026B00094F84320131E226818BF012392062BD4DE
:1026C00004F1430249463846C04701301ED0236812
:1026D000E568326803F00603042B08BFAD1AA3684F
:1026E00022690CBF25EAE57500259342C4BF9B1AF9
:1026F000ED1800261A34B5421AD1002008E0012353
:10270000524649463846C047013003D14FF0FF30AA
:10271000BDE8F0870135C6E7E1185A1C302081F882
:102720004300224494F8451082F843100233C7E76F
:102730000123224649463846C0470130E6D00136DB
:10274000D9E700002DE9FF470F7E0C9D782F9146B9
:1027500080460C469A4601F1430207D8622F0AD8F8
:10276000002F00F0D880582F00F0A38004F142051C
:1027700084F842703AE0A7F16303152BF6D801A163
:1027800051F823F0DD270008F12700086D27000825
:102790006D2700086D2700086D270008F127000845
:1027A0006D2700086D2700086D2700086D270008B9
:1027B000FD28000821280008DF2800086D270008F0
:1027C0006D2700081F2900086D2700082128000830
:1027D0006D2700086D270008E72800082B681A1DE0
:1027E0001B682A6004F1420584F842300123A3E00B
:1027F00020682968060601F104030AD50E682B60DB
:10280000002E03DA2D23764284F843305E480A23F3
:1028100019E00E682B6010F0400F18BF36B2EFE7DA
:102820002B682068191D2960010601D51E6802E089
:102830004606FBD51E8854486F2F0CBF08230A2379
:10284000002184F843106568A560002DA2BF2168AF
:1028500021F0040121600EB9002D4DD01546B6FBC4
:10286000F3F103FB1167C75D05F8017D3746BB42F5
:102870000E46F4D9082B0BD12368DE0708D523694F
:1028800061689942DEBF302305F8013C05F1FF3550
:10289000521B2261CDF800A04B4603AA21464046B8
:1028A000FFF7E2FE01304CD14FF0FF3004B0BDE83D
:1028B000F087354881F845702968236851F8046B22
:1028C00029601D0614D5DF0744BF43F020032360B1
:1028D0001EB9236823F0200323601023B0E7236888
:1028E00043F0200323607823284884F84530E3E749
:1028F000590648BFB6B2E6E71546BBE72B6826681F
:102900006169181D286035061B6801D5196002E051
:102910007006FBD51980002323611546BAE72B68A2
:102920001A1D2A601D68626800212846FDF798FC80
:1029300008B1401B606063682361002384F8433062
:10294000A8E723692A4649464046D0470130ABD024
:1029500023689B0713D4E068039B9842B8BF1846CE
:10296000A4E70123324649464046D04701309BD078
:102970000135E36803995B1AAB42F2DCEBE7002513
:1029800004F11906F5E700BF7A5200088B520008DF
:102990002DE9F74F03690C69A34207467DDB013C33
:1029A00001F1140800F1140505EB8403019358F8B4
:1029B000243055F8242001339A424FEA840B08EB67
:1029C0008409B2FBF3F62ED34FF0000E4046AC461E
:1029D000F24650F8042B93B206FB03E34FEA134E82
:1029E000120C9BB206FB02E2AAEB0303DCF800A088
:1029F0004FEA124E92B213FA8AF3C2EB1A4202EB7A
:102A000023429BB243EA024381454CF8043B4FEA20
:102A1000224ADED255F80B302BB9019B043B9D4274
:102A20001A462ED33C61384601F0C0F8002824DB5A
:102A3000013628464FF0000C58F8042BD0F800E07F
:102A400093B2ACEB0303120C13FA8EF3C2EB1E42EB
:102A500002EB23429BB243EA0243C14540F8043BE8
:102A60004FEA224CE8D255F8242005EB840322B922
:102A7000043B9D421A460AD33C61304603B0BDE890
:102A8000F08F1268043B002ACCD1013CC7E71268E2
:102A9000043B002AF0D1013CEBE70020EEE7000008
:102AA0002DE9F04F446A99B016461F46CDE90467F8
:102AB000DDF89480054674B9102000F0E3FD02466D
:102AC000686220B9A84BEA21A84801F071FAC0E970
:102AD00001440460C4606B6A196851B15A684A6065
:102AE000012393408B60284600F022FE6B6A00228F
:102AF0001A603B1EB9BF23F0004305930023C8F8BA
:102B00000030DDF814909A4BBCBF0122C8F80020B9
:102B100033EA090319D1249A42F20F731360C9F3FF
:102B20001303334300F08085269B53B9914B22E079
:102B3000914B03930833269A1360039819B0BDE8AC
:102B4000F08F8C4B03930333F5E7DDE90434CDE9D3
:102B50000C34DDE90C0100220023FDF7F5FF80466F
:102B600058B1249A01231360269B002B00F059854D
:102B700082481860431E0393DFE716AB019317AB3F
:102B800000932846DDE90C2301F0B4F8C9F30A5498
:102B90008346002C7ED00D9BCDF84C80C3F31303ED
:102BA000DDE90C0143F07F5141F44011A4F2FF3400
:102BB000734B0022FDF7A8FB65A3D3E90023FDF7C3
:102BC0005BFD65A3D3E90023FDF7A0FB0646204685
:102BD0000F46FDF7E7FC62A3D3E90023FDF74CFDA8
:102BE00002460B4630463946FDF790FB06460F4637
:102BF000FDF7F2FF00228246002330463946FDF7FA
:102C0000ADFF48B15046FDF7CDFC32463B46FDF7DF
:102C10009BFF08B90AF1FF3ABAF1160F57D8594B82
:102C200003EBCA03D3E90023DDE90C01FDF796FFAE
:102C300000284ED00AF1FF3A00230F93169B1C1B6D
:102C4000631E099345BFC4F10103069300230023CB
:102C50004CBF09930693BAF1000F3CDB099BCDF8FA
:102C600038A05344099300230A93229B092B00F2B6
:102C70008D80052BC4BF043B2293229BA3F102034A
:102C8000CCBF00240124032B00F28C80DFE803F08A
:102C90002D4F4D5BDDE916431C4404F23243202BDB
:102CA000C3BFC3F1400304F2124009FA03F3C3F1B6
:102CB0002003C6BF26FA00F0184306FA03F0FDF71A
:102CC00061FC0123A1F1F871013C139370E701232A
:102CD000B3E70F90B2E7069BA3EB0A030693CAF192
:102CE00000030A9300230E93BFE700230B93239B5B
:102CF000002B5ADC4FF00109CDF820904B46CDF85F
:102D00008C90686A00224260042202F114069E42FE
:102D1000416850D9284600F0CBFC039000284ED1E2
:102D2000194B02464FF4D571CEE60123DEE70023AE
:102D30000B93239B0AEB030909F10103012B089371
:102D4000B8BF0123DDE70123F2E700BFAFF3008046
:102D500061436F63A787D23FB3C8608B288AC63FA1
:102D6000FB799F501344D33FA9520008C05200087A
:102D70000000F07FA55200089C520008795200081C
:102D80000000F83FF85300083E53000801240023D8
:102D900022930B944FF0FF390022CDF8209012239C
:102DA0002392AEE701230B93F4E7DDF88C90CDF886
:102DB00020904B46A5E7013141605200A5E76B6AC0
:102DC000039A1A60089B0E2B00F2A880002C00F0DA
:102DD000A580BAF1000F34DD9A4A0AF00F0302EB26
:102DE000C303D3E900341AF4807FCDE910344FEAED
:102DF0002A1416D0944BDDE90C01D3E90823FDF722
:102E000065FDCDE9040104F00F0403278E4E54B98B
:102E1000DDE91023DDE90401FDF758FDCDE90401EA
:102E200029E00227F2E7E10708D5DDE91001D6E93C
:102E30000023FDF721FCCDE91001013764100836AD
:102E4000E5E700F0A580CAF100047E4B7E4E04F059
:102E50000F0203EBC203D3E90023DDE90C01FDF708
:102E60000BFCCDE90401241100230227002C40F0C3
:102E70008480002BD2D10F9B002B00F08B80DDE9EA
:102E80000434CDE91034DDE91001704B0022FDF768
:102E900065FE00287ED0089B002B7BD0B9F1000F87
:102EA00038DDDDE910016A4B0022FDF7E5FBCDE9D5
:102EB00004010AF1FF3801374C463846FDF772FB32
:102EC000DDE90423FDF7D8FB624B0022FDF71EFA73
:102ED000A1F15076CDE910011196002C5DD1DDE90C
:102EE00004015D4B0022FDF70FFA02460B46CDE9C7
:102EF0000423109A3346FDF74FFE002840F09C82D1
:102F0000DDE90401109A06F10043FDF727FE0028D1
:102F100040F09082DDE90C34CDE90434179B002B9E
:102F2000C0F25281BAF10E0F00F34E81454B03EB14
:102F3000CA03D3E90034CDE90634239B002B80F289
:102F4000DB80089B002B00F3D78040F07282424B5D
:102F50000022DDE90601FDF78FFBDDE90423FDF723
:102F600011FE089C2646002840F04882039F31232A
:102F700007F8013B0AF1010A44E2E20705D5D6E968
:102F80000023FDF779FB01370123641008366DE754
:102F9000022770E7089CD0468FE70399294B21440C
:102FA00012910B9903EBC403DDE9106753E9022387
:102FB000002955D029490020FDF788FC3B463246C0
:102FC000FDF7A2F9CDE91001039FDDE90401FDF74A
:102FD00003FE0446FDF7E6FA02460B46DDE904016E
:102FE000FDF792F9303402460B46CDE9042307F889
:102FF000014BDDE91023FDF7B1FD002874D1DDE9B7
:10300000042312490020FDF77FF9DDE91023FDF7C5
:10301000A5FD002840F0B780129B9F423FF47AAF95
:10302000DDE910010A4B0022FDF726FB084BCDE934
:1030300010010022DDE90401FDF71EFBCDE90401CA
:10304000C3E700BFF8530008D05300080000F03F6A
:103050000000244000001C40000014400000E03F3D
:1030600030463946FDF708FBCDE91001129B039C61
:103070001493DDE90401FDF7AFFD1590FDF792FA19
:1030800002460B46DDE90401FDF73EF9159B30339E
:1030900004F8013B129B9C4206460F464FF000028B
:1030A00024D1A44BDDE91001FDF730F902460B46AF
:1030B00030463946FDF770FD002863D1DDE9102365
:1030C0009C490020FDF720F902460B463046394660
:1030D000FDF744FD00283FF41DAF149F7B1E1493A1
:1030E00017F8013C302BF8D0C2463BE0924BFDF77D
:1030F000C3FACDE90401BCE7DDE90489039FDDE9FA
:10310000062340464946FDF7E1FBFDF765FD044611
:10311000FDF748FADDE90623FDF7AEFA04F13006C3
:1031200002460B4640464946FDF7EEF807F8016BAC
:10313000039EDDF820C0BE1BB44502460B4636D1C7
:10314000FDF7E4F8DDE9062380468946FDF724FD16
:1031500058BBDDE9062340464946FDF7F5FC08B1BA
:10316000E10722D42846594600F0E2FA00233B70DA
:10317000249B0AF101001860269B002B3FF4DDAC74
:103180001F60DAE427463B461F4613F8012D392A13
:1031900007D1039A9A42F7D10399302208F1010826
:1031A0000A701A7801321A709EE7D046EBE7624B3C
:1031B0000022FDF761FA0022002380468946FDF7D0
:1031C000C3FC00289BD0CDE70B9A002A00F0D080EA
:1031D000229A012A00F3B280139A002A00F0A680F6
:1031E00003F233430A9C069F069A1A440692099AF0
:1031F00001211A442846099200F050FB0646002F90
:103200000CDD099B002B09DDBB42069AA8BF3B469B
:10321000D21A0692099AFF1AD31A09930A9BF3B19C
:103220000B9B002B00F0A880002C10DD31462246BD
:10323000284600F0F1FB5A4601460646284600F0B3
:1032400043FB59468046284600F072FAC3460A9B63
:103250001A1B04D05946284600F0DEFB83460121A4
:10326000284600F01BFB0E9B002B044640F3868093
:103270001A460146284600F0CFFB229B012B04464C
:103280007FDD4FF00008236904EB8303186900F029
:10329000B7FAC0F12000099B184410F01F0000F09D
:1032A0009280C0F12003042B40F38A80C0F11C00FF
:1032B000069B03440693099B034407440993069B1A
:1032C000002B05DD59461A46284600F0FFFB8346D1
:1032D000099B002B05DD21461A46284600F0F6FB27
:1032E00004460F9B002B70D02146584600F05EFC30
:1032F00000286ADA002359460A22284600F03AFAE2
:103300000B9B0AF1FF3A8346002B00F09481314673
:1033100000230A22284600F02DFAB9F1000F0646D4
:1033200000F39380229B022B57DC8EE0169BC3F1A7
:10333000360357E70000E03F00002440089B5C1E76
:103340000A9BA342BFBF0A9B0A94E21A0E9BB6BF18
:103350009B181C1B0E93089BB8BF0024002BB9BF01
:10336000069B089A069F089BBCBF9F1A00233BE759
:103370000A9C069F0B9E42E70A9A6BE7229B012B51
:1033800019DC049BBBB9059BC3F313039BB9059BD5
:1033900023F000431B0D1B0583B1069B01330693ED
:1033A000099B013309934FF001080E9B002B7FF41A
:1033B0006AAF01206FE74FF00008F6E79846F4E7A0
:1033C0003FF47DAF18461C3072E7089B002B36DCBB
:1033D000229B022B33DDDDF82090B9F1000F0DD1D7
:1033E00021464B460522284600F0C4F90146044612
:1033F000584600F0DBFB00283FF7B8AD239B039F46
:103400006FEA030A4FF000082146284600F090F9C1
:10341000002E3FF4A7AEB8F1000F05D0B04503D0A1
:103420004146284600F084F93146284600F080F9EC
:1034300098E600242646E1E7C246264696E50B9B21
:10344000DDF82090002B00F0FD80002F05DD3146D7
:103450003A46284600F03AFB0646B8F1000F5CD029
:103460007168284600F024F9074628B9804B0246C7
:1034700040F2EA21FFF728BB32690232920006F1DE
:103480000C010C3000F006F901223946284600F004
:103490001DFB039B01330893039B4B440A93049B3E
:1034A00003F00103B04609930646089B2146013B01
:1034B00058460493FFF76CFA0346303306904146B2
:1034C00058460B9300F072FB32468146214628464F
:1034D00000F088FBC2680B9B074602BB01465846BA
:1034E00000F064FB0B9B024639462846CDE90B32BF
:1034F00000F01EF9229B0C9A089F43EA0201099BE7
:103500000B430B9B0DD1392B29D0B9F1000F01DDF5
:10351000069B3133049A137076E73046B9E70122EF
:10352000E2E7B9F1000F06DB229941EA090909999E
:1035300059EA010120D1002AECDD59460122284632
:10354000089300F0C3FA2146834600F02FFB0028C1
:10355000089B02DCDED1DA07DCD5392BD8D1049AFE
:10356000392313703B461F46013B17F8012C392ABB
:1035700050D001321A7047E7002A03DD392BEED014
:103580000133C7E7089A0A9902F8013C8A422AD017
:10359000594600230A22284600F0ECF8B04583463D
:1035A0004FF000034FF00A024146284607D100F0D1
:1035B000E1F880460646089B0133089375E700F062
:1035C000D9F83146804600230A22284600F0D2F876
:1035D0000646F0E7B9F1000F039ACCBF4F4601272A
:1035E00017444FF00008594601222846089300F07E
:1035F0006DFA2146834600F0D9FA0028B2DC02D1E8
:10360000089BDB07AED43B461F4613F8012D302A3A
:10361000FAD0F9E6039A9A42A5D10AF1010A3123B8
:1036200079E7144BFFF7A7BA269B002B7FF480AAFB
:10363000114BFFF7A0BAB9F1000F03DC229B022B5C
:103640003FF7CBAE039F21465846FFF7A1F900F1A3
:10365000300307F8013B039ABA1A9145BADD59467F
:1036600000230A22284600F085F88346EBE700BFD6
:103670003E530008785200089C52000800487047EA
:1036800058010020024B0146186800F00DBC00BF35
:10369000040000200A44914200F1FF3300D170473A
:1036A00010B511F8014B03F8014F9142F9D110BD4B
:1036B00070B5466A04460D4676B91020FFF7E2FF62
:1036C0000246606220B9184B1848662100F070FC71
:1036D000C0E901660660C660666AF36883B1636A22
:1036E000DB6853F82500B8B9012101FA05F6721D0F
:1036F0009200204600F05AFB60B1C0E901560EE08E
:1037000021220421204600F051FB636AF060DB684F
:10371000002BE4D1002070BD026843F8252000236F
:10372000C0E90333F7E700BFA95200084F53000870
:1037300070B5466A05460C4676B91020FFF7A2FF21
:103740000246686220B9094B09488A2100F030FC22
:10375000C0E901660660C6603CB16B6A6268DB68FE
:1037600053F82210216043F8224070BDA95200088E
:103770004F5300082DE9F0410D6907460C461E46DF
:1037800001F1140C0020DCF8003099B202FB016159
:103790001E0C0B0C02FB063389B2013001EB034116
:1037A00085424CF8041B4FEA1346ECDC0EB3A368C9
:1037B000AB4219DC616838460131FFF779FF80467A
:1037C00028B902460C4B0D48B52100F0F1FB2269E7
:1037D000023204F10C0192000C30FFF75BFF21462E
:1037E0003846FFF7A5FF444604EB850301355E61CB
:1037F00025612046BDE8F0813E5300084F53000884
:10380000020C12040346CAB90304102013F07F4FC0
:1038100004BF1B02083013F0704F04BF1B010430BB
:1038200013F0404F04BF9B000230002B05DB13F068
:10383000804F00F1010008BF202070470020E5E71D
:103840000368024613F007000BD0D90721D498076C
:1038500049BF5B089B08012013605CBF1360022016
:10386000704799B209B91B0C1020D9B209B90830B8
:103870001B0A190704BF1B090430990704BF9B08E2
:103880000230D90703D45B0800F1010003D01360B4
:1038900070470020704720207047000010B50C468C
:1038A0000121FFF705FF024628B9054B05484FF4F3
:1038B000A07100F07DFB01234461036110BD00BFD6
:1038C0003E5300084F5300082DE9F04F91460A6916
:1038D000D9F810309A42B8BF0B460C46BCBF4C46D4
:1038E00099462769D9F810A0A368616807EB0A0612
:1038F000B34285B0B8BF0131FFF7DAFE30B90246F6
:10390000434B444840F25D1100F052FB00F11405B6
:1039100005EB86082B460022434521D304F114030E
:1039200003EB870709F1140303EB8A0202923A1BA7
:10393000153A22F00302043204F115018F4238BF18
:1039400004220192029A03939A420CD8002E03DDBE
:1039500058F8043D002B59D0066105B0BDE8F08F42
:1039600043F8042BD8E7B3F800A0BAF1000F23D036
:1039700004F1140EA9464FF0000C5EF8042BD9F8A0
:1039800000101FFA82FB89B20AFB0B116144D9F8BF
:1039900000C0120C4FEA1C4C0AFB02C202EB11429F
:1039A00089B241EA0241774549F8041B4FEA124CBB
:1039B000E3D8019A45F802C0039AB2F802900433A2
:1039C000B9F1000F20D0296804F1140CAE464FF075
:1039D000000ABCF800B0BEF8022009FB0B2292449A
:1039E00089B241EA0A414EF8041B5CF8042BBEF888
:1039F0000010120C09FB021101EB1A4167454FEA56
:103A0000114AE6D8019AA95004359BE7013E9DE78B
:103A10003E5300084F5300082DE9F843154612F0B5
:103A2000030206460F4607D0254C013A002354F8FE
:103A30002220FFF79FFE0746AD103DD0746A7CB987
:103A40001020FFF71FFE0246706228B91D4B1E486A
:103A50004FF4D77100F0ACFAC0E901440460C460CF
:103A6000D6F82480D8F808404CB940F2712130468D
:103A7000FFF714FF0023C8F80800044603604FF066
:103A80000009EB070AD5394622463046FFF71CFFEE
:103A9000394680463046FFF74BFE47466D100BD047
:103AA000206838B9224621463046FFF70DFF2060D6
:103AB000C0F800900446E4E73846BDE8F88300BF4C
:103AC000C0540008A95200084F5300082DE9F047E0
:103AD0000C464968236903EB6218A36807469146C0
:103AE0004FEA621A08F10106B3420BDB3846FFF7D2
:103AF000DFFD054648B902462A4B2B4840F2D91152
:103B000000F056FA01315B00EEE7002300F11401EA
:103B100000F110021846534537DB20692AEAEA7A99
:103B200004F1140319F01F0901EB8A0103EB800073
:103B30002FD0C9F1200E8A464FF0000C1A6802FA05
:103B400009F242EA0C024AF8042B53F8042B98427B
:103B500022FA0EFCF2D8031B153B23F003030433B7
:103B600004F11502904238BF042341F803C0BCF1B0
:103B7000000F01D008F10206013E38462E612146B1
:103B8000FFF7D6FD2846BDE8F08742F8040F013361
:103B9000C1E7043953F8042B41F8042F9842F9D8AF
:103BA000EAE700BF3E5300084F5300080A69034686
:103BB0000069801A30B50DD11433143103EB82043F
:103BC00001EB820154F8045D51F8042D954202D0B6
:103BD00004D3012030BDA342F4D3FBE74FF0FF3004
:103BE000F8E700002DE9F84F0D4607461146284634
:103BF0001446FFF7DBFF061E11D131463846FFF7AA
:103C000057FD024628B9394B40F23221384800F0BE
:103C1000CFF90123C0E904361046BDE8F88FA4BFF0
:103C200023462C4638466168A6BF1D46002601265D
:103C3000FFF73EFD024618B92C4B4FF41071E5E733
:103C40002769C6602E6904F1140005F1140902F118
:103C5000140E00EB870C09EB86061034F2460021A7
:103C600059F8043B54F804BF1FFA83F811FA8BF19A
:103C70001B0CA1EB0808C3EB1B4303EB28431FFA03
:103C800088F819144E4548EA03434AF8043BE7D83C
:103C9000731B153B23F0030304331535AE4238BFC5
:103CA0000423184473449E46064666450ED30CF121
:103CB0000301091A21F003010338844538BF0021AC
:103CC000194451F8043D7BB11761A5E756F8048B00
:103CD00011FA88F4251405EB1845A4B244EA05440A
:103CE0004EF8044B2914E0E7013FEAE73E53000891
:103CF0004F5300082DE9F3410121DDE90876904694
:103D00001D46FFF7D5FC044630B90246254B264830
:103D100040F20A3100F04CF9C5F31303C5F30A551C
:103D20002DBB0193B8F1000326D068460093FFF73E
:103D300087FD0099F0B1019AC0F1200302FA03F364
:103D40000B43C24063610192019BA361002B14BF2E
:103D5000022101212161C5B1A5F233450544C0F11D
:103D600035003D603060204602B0BDE8F08143F48C
:103D70008013D6E76161E7E701A8FFF761FD019BCA
:103D80006361012121612030E5E704EB8103A0F2AA
:103D9000324038601869FFF733FDC0EB41113160E4
:103DA000E1E700BF3E5300084F53000870B5A1FB88
:103DB000025434B9294600F077F8064628B930464F
:103DC00070BD0C2202600026F9E72A462146FEF764
:103DD0007BF9F4E738B50546002941D051F8043C99
:103DE0000C1F002BB8BFE41800F024F91D4A13681B
:103DF00033B9636014602846BDE8384000F020B94C
:103E0000A34208D9206821188B4201BF19685B685A
:103E100009182160EDE71A465B680BB1A342FAD995
:103E200011685018A0420BD12068014450188342F9
:103E30001160E0D118685B68536001441160DAE7F3
:103E400002D90C232B60D6E7206821188B4204BFCF
:103E500019685B68636004BF091821605460CAE791
:103E600038BD00BFA005002070B50E4E0C4631686D
:103E7000054611B900F08CF830602146284600F064
:103E800087F8431C0AD0C41C24F00304A04207D0C6
:103E9000211A284600F07CF8013001D14FF0FF34A0
:103EA000204670BDA40500202DE9F041CD1C25F071
:103EB000030508350C2D38BF0C25002D074601DB06
:103EC000A94205D90C233B6000263046BDE8F081AD
:103ED0002E4E00F0AFF833681C4634BB29463846F6
:103EE000FFF7C2FF431C04464DD134682646002E1E
:103EF00040D123683146384604EB030800F048F807
:103F000080453AD1216803356D1A25F0030508353F
:103F10000C2D38BF0C2529463846FFF7A5FF013088
:103F20002BD023682B4423600EE02268521B1ED442
:103F30000B2A16D96119A342256018BF596063681E
:103F400008BF316062514B60384604F10B0600F047
:103F500077F826F00706231DF21AB6D09B1BA35054
:103F6000B3E76268A3420CBF32605A60ECE72346B5
:103F70006468B2E734467668B9E70C233B6038469C
:103F800000F05EF8A1E72560DEE700BFA005002095
:103F900038B5064D0023044608462B6000F0B2FFFA
:103FA000431C02D12B6803B1236038BDA805002053
:103FB0001FB514461A46094B1B680546D8684CB114
:103FC000074B0091CDE9013406492B4600F00EF86D
:103FD00000F062FA044B1C46F3E700BF0400002027
:103FE000CC540008D9540008075500080EB403B596
:103FF000014603AB054853F8042B0068019300F019
:104000004DF802B05DF804EB03B0704704000020E7
:1040100082B001B901A942B14BB113780B6012789B
:10402000101E18BF012002B070471046FBE76FF06A
:104030000100F8E7014800F0EBBB00BFAC05002031
:10404000014800F0E6BB00BFAC0500209368013BCF
:10405000002B10B4936007DA9469A34201DB0A29AC
:1040600002D110BC00F04AB91368581C10601970D6
:10407000084610BC7047F8B506460F461446D518DA
:10408000AC4201D1002007E014F8011B3A4630464B
:10409000FFF7DCFF431CF3D1F8BD00002DE9F04F22
:1040A0000D469DB014469846064618B183690BB973
:1040B00000F010FB894B9D421BD175686B6ED907D0
:1040C00005D4AB899A0502D4A86D00F0A1FBAB8999
:1040D0001B0701D52B69EBB92946304600F06EF974
:1040E000C0B16B6EDC070ED54FF0FF301DB0BDE8E0
:1040F000F08F7B4B9D4201D1B568DFE7794B9D4244
:1041000008BFF568DAE7AB899805EDD4A86D00F033
:1041100080FBE9E70023099320238DF82930CDF8AF
:104120000C803023DFF8C0818DF82A304FF0010970
:1041300023469A4613F8012B0AB1252AF9D1BAEB86
:10414000040B0BD05B46224629463046FFF793FF0F
:10415000013000F0AA80099A5A4409929AF8003076
:10416000002B00F0A28000234FF0FF32CDE90523A1
:104170000AF1010A049307938DF853301A935446B9
:10418000052214F8011B5848FCF76AF8049AD8B9BC
:10419000D10644BF20238DF85330130744BF2B238F
:1041A0008DF853309AF800302A2B15D0079A5446D0
:1041B00000204FF00A0C214611F8013B303B092B3F
:1041C0004ED9B0B1079214E0A0EB080309FA03F34B
:1041D00013430493A246D2E7039B191D1B68039166
:1041E000002BBBBF5B4242F0020207930793B8BFAC
:1041F000049223782E2B0CD163782A2B35D1039B84
:104200001A1D1B680392002BB8BF4FF0FF33023416
:104210000593DFF8D8A0217803225046FCF720F858
:1042200040B14023A0EB0A0003FA00F0049B0343D3
:104230000134049314F8011B2D488DF82810062230
:10424000FCF70EF800283FD02A4B1BBB039B07331B
:1042500023F0070308330393099B3B44099367E763
:104260000CFB02320C460120A5E700230134059324
:1042700019464FF00A0C204610F8012B303A092A53
:1042800003D9002BC5D00591C3E70CFB01210446DF
:104290000123F0E703AB00932A46174B04A93046ED
:1042A000FDF7B8FF0746781CD6D16B6ED90705D449
:1042B000AB899A0502D4A86D00F0ABFAAB895B0616
:1042C0003FF512AF099811E703AB00932A460A4B5A
:1042D00004A93046FEF736FAE4E700BF445600086A
:1042E00064560008245600081255000818550008A6
:1042F0001C5500081522000877400008F8B50E4646
:104300001446054618B183690BB900F0E3F9214B57
:104310009C422BD16C68A369A360A3891A072FD58F
:1043200023696BB323692068C01A6369F6B28342BC
:10433000374604DC2146284600F038F930BBA36834
:10434000013BA36023685A1C22601E706369013020
:10435000834204D0A389DB0706D50A2E04D1214667
:10436000284600F023F988B93846F8BD0A4B9C422C
:1043700001D1AC68CFE7094B9C4208BFEC68CAE7A3
:104380002146284600F01AF80028CBD04FF0FF371E
:10439000EAE700BF445600086456000824560008A7
:1043A0000346084641B1FF2A04D98A221A604FF019
:1043B000FF3070470A70012070470000324B70B523
:1043C0001D6806460C4625B1AB6913B9284600F0B6
:1043D00081F92E4B9C420FD16C68A389B4F90C2053
:1043E00019072CD4DD0611D40923336042F04003B1
:1043F000A3814FF0FF303EE0254B9C4201D1AC68D9
:10440000EBE7244B9C4208BFEC68E6E7580712D55F
:10441000616B41B104F14403994202D03046FFF789
:10442000D9FC00236363A38923F02403A381002321
:10443000636023692360A38943F00803A381236990
:104440004BB9A38903F42073B3F5007F03D0214651
:10445000304600F005FAA089B4F90C2010F00103F1
:104460000AD00023A36063695B42A361236943B957
:1044700010F08000BAD170BD810758BF6369A36096
:10448000F4E70020F7E700BF0400002044560008CE
:10449000645600082456000808B5062000F092FA79
:1044A000012000F045FD00008A89F8B50546100797
:1044B0000C4657D44B68002B04DC0B6C002B01DC42
:1044C0000020F8BDE66A002EFAD0002312F48052D4
:1044D0002F682B6032D0606DA3895A0705D56368B9
:1044E000C01A636B0BB1236CC01A00230246E66A44
:1044F000216A2846B047431CA38906D129681D2993
:104500002CD8294ACA40D60728D500226260D9048F
:104510002269226004D5421C01D12B6803B9606571
:10452000616B2F600029CBD004F14403994202D083
:104530002846FFF74FFC00206063C2E7216A012391
:104540002846B047411CC7D12B68002BC4D01D2B77
:1045500001D0162B01D12F60B2E7A38943F04003AD
:10456000A381AEE70F69002FAAD093070E6808BF9A
:104570004B690F6018BF0023F61B8B60002E9FDD78
:10458000216AD4F828C033463A462846E047002836
:1045900006DCA38943F04003A3814FF0FF3090E78E
:1045A0000744361AEAE700BF0100402038B50B691E
:1045B00005460C4613B90025284638BD18B1836955
:1045C0000BB900F087F8144B9C421BD16C68B4F90E
:1045D0000C30002BEFD0626ED00704D4990502D4C2
:1045E000A06D00F015F928462146FFF75DFF636EC8
:1045F000DA070546E0D4A3899B05DDD4A06D00F061
:1046000008F9D9E7054B9C4201D1AC68DFE7044BC0
:104610009C4208BFEC68DAE744560008645600087C
:1046200024560008002310B50446C0E90033C0E951
:104630000433836081814366C28183611946082205
:104640005C30FDF741FD054B6362054BA362054BF2
:10465000E362054B2462236310BD00BFFD490008DF
:104660001F4A0008574A00087B4A0008014900F029
:10467000AFB800BFAD45000870B568224D1E554368
:104680000E4605F17401FFF70FFC044640B100210E
:10469000C0E900160C30A06005F16802FDF714FDBA
:1046A000204670BD014800F0B3B800BFAD05002042
:1046B000014800F0AEB800BFAD050020014800F091
:1046C000A7B800BFAE050020014800F0A2B800BFA7
:1046D000AE05002010B50446FFF7F0FFA3691BB13B
:1046E000BDE81040FFF7F0BFC4E912332365134B58
:1046F000134A1B68A262A34204BF0123A3612046A0
:1047000000F020F86060204600F01CF8A060204611
:1047100000F018F80022E06004216068FFF782FFD3
:10472000A06801220921FFF77DFFE0680222122123
:10473000FFF778FF0123A361D2E700BF64520008AE
:104740006D460008F8B50746FFF7ACFF1E4B1E6824
:10475000B36913B93046FFF7BDFF4836D6E90134D7
:10476000013B03D533680BB33668F7E7B4F90C5057
:10477000D5B9164BE36004F15800656600F047F8C0
:10478000FFF796FFC4E90155C4E904552560A5610A
:104790000822294604F15C00FDF796FCC4E90D559A
:1047A000C4E912552046F8BD6834D9E704213846DB
:1047B000FFF762FF044630600028D5D1FFF778FF8D
:1047C0000C233B60EEE700BF645200080100FFFFCE
:1047D0002DE9F8430646884600F148040027D4E94D
:1047E0000195B9F1010905D52468002CF7D13846A7
:1047F000BDE8F883AB89012B07D9B5F90E30013339
:1048000003D029463046C04707436835E9E770477B
:104810007047704770B50E46B1F90E10002996B07A
:1048200014461D4608DAB6F90C3000222A601A0632
:1048300010D44FF480630EE06A4600F045F900287A
:10484000F1DB019A02F47042A2F500535A425A4138
:104850002A60EEE740230020236016B070BD000000
:104860008B8973B59D0706460C4607D504F14703AF
:10487000236023610123636102B070BD01AB6A460E
:10488000FFF7C8FF009905463046FFF70DFB48B912
:10489000B4F90C309A05EFD423F0030343F002037C
:1048A000A381E3E70D4BB362A389206043F080034B
:1048B000A381009B6361019B20615BB1B4F90E1081
:1048C000304600F013F928B1A38923F0030343F025
:1048D0000103A381A0890543A581CDE76D460008AA
:1048E000884210B501EB020402D98442234607D85E
:1048F000431EA14208D011F8012B03F8012FF8E75D
:10490000024401468A4200D110BD13F8014D02F85D
:10491000014DF7E72DE9F041804614460E4621B9D6
:10492000BDE8F0411146FFF7BFBA2AB9FFF752FAC6
:1049300025462846BDE8F08100F0FAF88442074693
:1049400002D8B4EB500F12D821464046FFF7ACFA1C
:1049500005460028EDD0BC422246314628BF3A46E3
:10496000FEF798FE31464046FFF734FAE1E7354658
:10497000DFE71F2938B504460D4604D91623036026
:104980004FF0FF3038BD426C12B152F821304BB9B4
:10499000204600F031F82A4601462046BDE838405E
:1049A00000F018B8012B0AD0591C03D1162303605C
:1049B0000120E7E7002442F82540284698470020D8
:1049C000E0E70000024B01461868FFF7D2BF00BFC6
:1049D0000400002038B5074D002304460846114660
:1049E0002B6000F077FA431C02D12B6803B12360DF
:1049F00038BD00BFA805002000F05CBA10B50C4619
:104A0000B1F90E1000F09CF80028ABBF636DA389CC
:104A10001B1823F48053ACBF6365A38110BD2DE93F
:104A2000F0411F468B89DB0505460C46164605D529
:104A3000B1F90E100223002200F068F8A389B4F93E
:104A40000E1023F48053A38132463B462846BDE82E
:104A5000F04100F017B810B50C46B1F90E1000F097
:104A600055F8431CA38915BF606523F4805343F4B4
:104A70008053A38118BFA38110BDB1F90E1000F0BF
:104A800013B8000038B5074D044608461146002209
:104A90002A601A4600F044FA431C02D12B6803B185
:104AA000236038BDA805002038B5064D0023044614
:104AB00008462B6000F0EEF9431C02D12B6803B1CD
:104AC000236038BDA805002038B5074D00230446F3
:104AD000084611462B6000F0E5F9431C02D12B6813
:104AE00003B1236038BD00BFA805002038B5064DCE
:104AF0000023044608462B6000F0E4F9431C02D171
:104B00002B6803B1236038BDA805002038B5074DD8
:104B100004460846114600222A601A4600F0E2F9CF
:104B2000431C02D12B6803B1236038BDA8050020C7
:104B300051F8043C181F002BBCBF0B58C01870471D
:104B400038B5074D04460846114600222A601A4629
:104B500000F0D0F9431C02D12B6803B1236038BDAB
:104B6000A80500200CB430B5174B0C1E1D689DB075
:104B700008DA8B232B604FF0FF301DB0BDE83040CA
:104B800002B070474FF40273ADF8143014BF04F153
:104B9000FF332346049307934FF6FF73029006906A
:104BA000ADF81630209A21AB02A92846019300F0F7
:104BB00071F8431CBCBF8B232B60002CDDD0029B03
:104BC00000221A70D9E700BF04000020034611F844
:104BD000012B03F8012B002AF9D170472DE9F0478A
:104BE0008E689E4282460C4690461F4638D88A8977
:104BF00012F4906F32D025680969A5EB0109656947
:104C000005EB450505EBD57501334B446D109D4211
:104C100038BF1D46530531D52946FFF745F90646ED
:104C200050B90C23CAF80030A38943F04003A38194
:104C30004FF0FF30BDE8F08721694A46FEF72AFDB4
:104C4000A38923F4906343F08003A3812661656107
:104C50004E44A5EB09052660A5603E46BE4200D93C
:104C60003E46206832464146FFF73AFEA3689B1B4A
:104C7000A3602368334423600020DBE72A46FFF764
:104C800049FE06460028E1D121695046FFF7A2F807
:104C9000C7E700002DE9F04F98468B891B069DB0B1
:104CA00007460D4614460ED50B6963B94021FFF740
:104CB000FBF82860286120B90C233B604FF0FF30DF
:104CC000D1E040236B610023099320238DF8293024
:104CD000CDF80C803023DFF8A8818DF82A304FF012
:104CE000010923469A4613F8012B0AB1252AF9D166
:104CF000BAEB040B0BD05B46224629463846FFF739
:104D00006DFF013000F0AA80099A5A4409929AF87E
:104D10000030002B00F0A28000234FF0FF32CDE9DD
:104D200005230AF1010A049307938DF853301A936F
:104D30005446052214F8011B5148FBF791FA049AD6
:104D4000D8B9D00644BF20238DF85330110744BF93
:104D50002B238DF853309AF800302A2B15D0079A60
:104D6000544600204FF00A0C214611F8013B303B1D
:104D7000092B4ED9B0B1079214E0A0EB080309FA51
:104D800003F313430493A246D2E7039B191D1B6848
:104D90000391002BBBBF5B4242F0020207930793D3
:104DA000B8BF049223782E2B0CD163782A2B35D1EF
:104DB000039B1A1D1B680392002BB8BF4FF0FF33F3
:104DC00002340593DFF8BCA0217803225046FBF79C
:104DD00047FA40B14023A0EB0A0003FA00F0049B1D
:104DE00003430134049314F8011B27488DF828105D
:104DF0000622FBF735FA002838D0244B1BBB039B57
:104E0000073323F0070308330393099B33440993C3
:104E100067E70CFB02320C460120A5E700230134B2
:104E2000059319464FF00A0C204610F8012B303A32
:104E3000092A03D9002BC5D00591C3E70CFB01213A
:104E400004460123F0E703AB00932A46104B04A964
:104E50003846FDF7DFF9421C0646D6D1AB895B0622
:104E60003FF52CAF09981DB0BDE8F08F03AB009360
:104E70002A46074B04A93846FDF764FCEBE700BF60
:104E800012550008185500081C5500081522000886
:104E9000DD4B0008024B58221A604FF0FF3070477C
:104EA000A8050020024B58221A604FF0FF307047CF
:104EB000A8050020024B58221A604FF0FF307047BF
:104EC000A8050020024B58221A600020704700BF3E
:104ED000A8050020024B58221A604FF0FF3070479F
:104EE000A8050020024B58221A604FF0FF3070478F
:104EF000A8050020024B58221A604FF0FF3070477F
:104F0000A8050020044A05491368002B08BF0B467A
:104F10001844106018467047B0050020B8050020FE
:104F2000024B58221A604FF0FF307047A80500204E
:104F3000FEE700BFF8B500BFF8BC08BC9E4670474E
:0C4F4000F8B500BFF8BC08BC9E467047E6
:104F5000061000010211213143790000C000000059
:104F6000020000000000000000000000000000003F
:104F7000070000004C6F6B6F20626F6F746C6F6185
:104F8000646572204170702076256C752E256C75D5
:104F9000004C6F6B6F20626F6F746C6F6164657231
:104FA00020417070206E6F7420666F756E64000013
:104FB00001000000030000000500000001000000E7
:104FC00001000000060000000A00000020000000B0
:104FD00002000000040000000800000010000000B3
:104FE00040000000800000000001000000020000FE
:104FF00000000000000000000000000000000000B1
:105000000100000002000000030000000400000096
:10501000650C000815130008F1130008A51200081C
:10502000AD0C0008A0860100400D0300801A0600A8
:1050300000350C0040420F0080841E0000093D0036
:1050400000127A000024F40000366E010048E801E6
:10505000006CDC0200000000000000000000000006
:105060000000000000002110422063308440A55061
:10507000C660E770088129914AA16BB18CC1ADD19E
:10508000CEE1EFF13112100273325222B552944246
:10509000F772D662399318837BB35AA3BDD39CC3EE
:1050A000FFF3DEE36224433420040114E664C77492
:1050B000A44485546AA54BB528850995EEE5CFF53E
:1050C000ACC58DD55336722611163006D776F666E6
:1050D0009556B4465BB77AA719973887DFF7FEE78E
:1050E0009DD7BCC7C448E5588668A77840086118B2
:1050F00002282338CCC9EDD98EE9AFF948896999DE
:105100000AA92BB9F55AD44AB77A966A711A500A85
:10511000333A122AFDDBDCCBBFFB9EEB799B588B2D
:105120003BBB1AABA66C877CE44CC55C222C033CD1
:10513000600C411CAEED8FFDECCDCDDD2AAD0BBD7D
:10514000688D499D977EB66ED55EF44E133E322E25
:10515000511E700E9FFFBEEFDDDFFCCF1BBF3AAFCD
:10516000599F788F8891A981CAB1EBA10CD12DC12B
:105170004EF16FE18010A100C230E32004502540C1
:1051800046706760B9839893FBA3DAB33DC31CD321
:105190007FE35EF3B1029012F322D2323542145211
:1051A00077625672EAB5CBA5A89589856EF54FE56D
:1051B0002CD50DC5E234C324A01481046674476461
:1051C00024540544DBA7FAB79987B8975FE77EF7C1
:1051D0001DC73CD7D326F2369106B01657667676B1
:1051E000154634564CD96DC90EF92FE9C899E9898D
:1051F0008AB9ABA94458654806782768C018E10801
:105200008238A3287DCB5CDB3FEB1EFBF98BD89B60
:10521000BBAB9ABB754A545A376A167AF10AD01A50
:10522000B32A923A2EFD0FED6CDD4DCDAABD8BADAC
:10523000E89DC98D267C076C645C454CA23C832CA0
:10524000E01CC10C1FEF3EFF5DCF7CDF9BAFBABF00
:10525000D98FF89F176E367E554E745E932EB23EF0
:10526000D10EF01E08000020494E4600696E66000F
:105270004E414E006E616E003000303132333435B5
:1052800036373839414243444546003031323334B1
:10529000353637383961626364656600496E666920
:1052A0006E697479004E614E005245454E54206D32
:1052B000616C6C6F6320737563636565646564001E
:1052C0002F6D6E742F776F726B73706163652F77BC
:1052D0006F726B73706163652F4743432D31302DBF
:1052E000706970656C696E652F6A656E6B696E7347
:1052F0002D4743432D31302D706970656C696E65A3
:105300002D3236305F32303231303732375F31361E
:1053100032373337313338362F7372632F6E6577F8
:105320006C69622F6E65776C69622F6C6962632F9E
:105330007374646C69622F64746F612E63004261E0
:105340006C6C6F6320737563636565646564002FBF
:105350006D6E742F776F726B73706163652F776FEB
:10536000726B73706163652F4743432D31302D702D
:105370006970656C696E652F6A656E6B696E732DF9
:105380004743432D31302D706970656C696E652D12
:105390003236305F32303231303732375F31363289
:1053A000373337313338362F7372632F6E65776C2E
:1053B00069622F6E65776C69622F6C6962632F7307
:1053C00074646C69622F6D707265632E63000000F7
:1053D0000080E03779C34143176E05B5B5B89346F1
:1053E000F5F93FE9034F384D321D30F94877825ABD
:1053F0003CBF737FDD4F1575000000000000F03FDB
:10540000000000000000244000000000000059409F
:105410000000000000408F40000000000088C340F2
:1054200000000000006AF8400000000080842E4167
:1054300000000000D01263410000000084D79741B3
:105440000000000065CDCD41000000205FA00242B9
:10545000000000E876483742000000A2941A6D422E
:10546000000040E59C30A2420000901EC4BCD64221
:1054700000003426F56B0C430080E03779C34143CC
:1054800000A0D8855734764300C84E676DC1AB4342
:10549000003D9160E458E143408CB5781DAF154460
:1054A00050EFE2D6E41A4B4492D54D06CFF080443B
:1054B000F64AE1C7022DB544B49DD9794378EA4450
:1054C00005000000190000007D0000002C2066751A
:1054D0006E6374696F6E3A200061737365727469EC
:1054E0006F6E2022257322206661696C65643A2004
:1054F00066696C6520222573222C206C696E6520FC
:105500002564257325730A004300504F5349580002
:105510002E00232D302B2000686C4C0065666745FB
:105520004647000020202020202020202028282856
:10553000282820202020202020202020202020205B
:1055400020202020881010101010101010101010A3
:1055500010101010040404040404040404041010C3
:105560001010101010414141414141010101010160
:10557000010101010101010101010101010101100C
:105580001010101010424242424242020202020235
:1055900002020202020202020202020202020210DD
:1055A00010101020000000000000000000000000AB
:1055B00000000000000000000000000000000000EB
:1055C00000000000000000000000000000000000DB
:1055D00000000000000000000000000000000000CB
:1055E00000000000000000000000000000000000BB
:1055F00000000000000000000000000000000000AB
:10560000000000000000000000000000000000009A
:10561000000000000000000000000000000000008A
:10562000000000000000000000000000000000007A
:10563000000000000000000000000000000000006A
:10564000000000000000000000000000000000005A
:10565000000000000000000000000000000000004A
:10566000000000000000000000000000000000003A
:10567000000000000000000000000000000000002A
:045680000000000026
:0456840035020008E3
:045688001102000803
:10568C0000093D00080000200000000044560008FE
:10569C0064560008245600080000000000000000BA
:1056AC0000000000000000000000000000000000EE
:1056BC0000000000000000000000000000000000DE
:1056CC0000000000000000000000000000000000CE
:1056DC0000000000000000000000000000000000BE
:1056EC00000000000000000043000000000000006B
:1056FC00000000000000000000000000000000009E
:10570C00000000000000000043000000000000004A
:10571C00000000000000000000000000000000007D
:10572C00000000000000000043000000000000002A
:10573C00000000000000000000000000000000005D
:10574C00000000000000000043000000000000000A
:10575C00000000000000000000000000000000003D
:10576C0000000000000000004300000000000000EA
:10577C00000000000000000000000000000000001D
:10578C0000000000000000004300000000000000CA
:10579C0000000000000000000000000000000000FD
:1057AC0000000000000000004300000000000000AA
:1057BC0000000000000000000000000000000000DD
:1057CC000000000000000000A14300081140000888
:1057DC00000000002355000810550008075500086C
:1057EC00075500080755000807550008075500081D
:1057FC00075500080755000807550008075500080D
:10580C00FFFFFFFFFFFFFFFFFFFFFFFFFFFF00009A
:10581C000100415343494900000000000000000012
:10582C00000000000000000000000000000000006C
:10583C0000004153434949000000000000000000F3
:10584C00000000000000000000000000000000004C
:04585C000000000048
:045860007856341230
:04000005080020319E
:00000001FF
