:020000040800F2
:108000000000012039A60108F16401080965010892
:10801000216501083965010851650108000000006B
:108020000000000000000000000000006965010879
:108030006B650108000000006D65010871650108AD
:10804000B1680108B3680108F1670108B568010863
:10805000B7680108B9680108BB680108BD68010874
:10806000BF680108C1680108C3680108816501088B
:108070008565010839660108C5680108C7680108F7
:10808000C9680108CB680108CD680108CF680108FC
:1080900000000000D1680108D3680108D568010814
:1080A000D7680108D9680108DB680108DD680108A4
:1080B000DF680108E1680108E3680108E568010874
:1080C000E7680108E9680108EB680108ED68010844
:1080D000E1660108EF68010869670108F1680108B5
:1080E000F3680108F5680108F5670108F7680108F9
:1080F000F96801080000000000000000FB680108AA
:10810000FD680108FF6801083D6601080169010872
:10811000036901080569010807690108096901087F
:108120000B6901080D6901080F690108116901084F
:0881300013690108156901083B
:1082000000A1C010010000004900000064A80100A6
:1082100010B5054C237833B9044B13B10448AFF3C0
:1082200000800123237010BD5004002000000000D6
:1082300094EF010808B5034B1BB103490348AFF3A2
:10824000008008BD000000005404002094EF0108E5
:10825000034613F8012B002AFBD1181A0138704786
:1082600001F0FF01102A2BDB10F0070F08D010F8E7
:10827000013B013A8B422DD010F0070F42B3F6D1EB
:10828000F0B441EA012141EA014122F007047FF004
:1082900000070023F0E80256083C85EA010586EA5B
:1082A000010685FA47F5A3FA87F586FA47F6A5FA97
:1082B00087F68EB9EED1F0BC01F0FF0102F00702A3
:1082C00032B110F8013B013A83EA010313B1F8D14E
:1082D0000020704701387047002D06BF354603382F
:1082E000073815F0010F07D1013015F4807F02BF68
:1082F000013015F4C03F0130F0BC0138704700BFB9
:1083000081F0004102E000BF83F0004330B54FEA46
:1083100041044FEA430594EA050F08BF90EA020FB3
:108320001FBF54EA000C55EA020C7FEA645C7FEA46
:10833000655C00F0E2804FEA5454D4EB5555B8BF69
:108340006D420CDD2C4480EA020281EA030382EADA
:10835000000083EA010180EA020281EA0303362D6C
:1083600088BF30BD11F0004F4FEA01314FF4801C3F
:108370004CEA113102D0404261EB410113F0004F51
:108380004FEA03334CEA133302D0524263EB430308
:1083900094EA050F00F0A780A4F10104D5F1200EA6
:1083A0000DDB02FA0EFC22FA05F2801841F1000101
:1083B00003FA0EF2801843FA05F359410EE0A5F1D5
:1083C00020050EF1200E012A03FA0EFC28BF4CF006
:1083D000020C43FA05F3C01851EBE37101F00045BC
:1083E00007D54FF0000EDCF1000C7EEB00006EEBC9
:1083F0000101B1F5801F1BD3B1F5001F0CD3490853
:108400005FEA30004FEA3C0C04F101044FEA4452A9
:1084100012F5800F80F09A80BCF1004F08BF5FEA30
:10842000500C50F1000041EB045141EA050130BD10
:108430005FEA4C0C404141EB0101013C28BFB1F522
:10844000801FE9D291F0000F04BF01460020B1FA6D
:1084500081F308BF2033A3F10B03B3F120020CDA40
:108460000C3208DD02F1140CC2F10C0201FA0CF01E
:1084700021FA02F10CE002F11402D8BFC2F1200C83
:1084800001FA02F120FA0CFCDCBF41EA0C01904039
:10849000E41AA2BF01EB0451294330BD6FEA040482
:1084A0001F3C1CDA0C340EDC04F11404C4F120026D
:1084B00020FA04F001FA02F340EA030021FA04F37F
:1084C00045EA030130BDC4F10C04C4F1200220FAD6
:1084D00002F001FA04F340EA0300294630BD21FA14
:1084E00004F0294630BD94F0000F83F4801306BFDA
:1084F00081F480110134013D4EE77FEA645C18BFCE
:108500007FEA655C29D094EA050F08BF90EA020F64
:1085100005D054EA000C04BF1946104630BD91EA5C
:10852000030F1EBF0021002030BD5FEA545C05D15F
:108530004000494128BF41F0004130BD14F580049E
:108540003CBF01F5801130BD01F0004545F0FE4112
:1085500041F470014FF0000030BD7FEA645C1ABF47
:10856000194610467FEA655C1CBF0B46024650EA7E
:10857000013406BF52EA033591EA030F41F40021AA
:1085800030BD00BF90F0000F04BF0021704730B530
:108590004FF4806404F132044FF000054FF0000105
:1085A00050E700BF90F0000F04BF0021704730B5C6
:1085B0004FF4806404F1320410F0004548BF40429B
:1085C0004FF000013EE700BF42004FEAE2014FEAF0
:1085D00031014FEA02701FBF12F07F4393F07F4FCB
:1085E00081F06051704732F07F4208BF704793F0CE
:1085F0007F4F04BF41F40021704730B54FF46074E1
:1086000001F0004521F000411CE700BF50EA0102E3
:1086100008BF704730B54FF000050AE050EA01028C
:1086200008BF704730B511F0004502D5404261EBFC
:1086300041014FF4806404F132045FEA915C3FF43D
:10864000D8AE4FF003025FEADC0C18BF03325FEADA
:10865000DC0C18BF033202EBDC02C2F1200300FA8B
:1086600003FC20FA02F001FA03FE40EA0E0021FAB0
:1086700002F11444BDE600BF70B54FF0FF0C4CF49E
:10868000E06C1CEA11541DBF1CEA135594EA0C0F50
:1086900095EA0C0F00F0DEF82C4481EA030621EA8B
:1086A0004C5123EA4C5350EA013518BF52EA0335C6
:1086B00041F4801143F4801338D0A0FB02CE4FF078
:1086C0000005E1FB02E506F00042E0FB03E54FF0A8
:1086D0000006E1FB03569CF0000F18BF4EF0010EA0
:1086E000A4F1FF04B6F5007F64F5407404D25FEA9C
:1086F0004E0E6D4146EB060642EAC62141EA55514F
:108700004FEAC52040EA5E504FEACE2EB4F1FD0C90
:1087100088BFBCF5E06F1ED8BEF1004F08BF5FEA0E
:10872000500E50F1000041EB045170BD06F00046C0
:1087300046EA010140EA020081EA0301B4EB5C046D
:10874000C2BFD4EB0C0541EA045170BD41F4801165
:108750004FF0000E013C00F3AB8014F1360FDEBF8A
:10876000002001F0004170BDC4F10004203C35DA66
:108770000C341BDC04F11404C4F1200500FA05F3E9
:1087800020FA04F001FA05F240EA020001F000428A
:1087900021F0004110EBD37021FA04F642EB060100
:1087A0005EEA430E08BF20EAD37070BDC4F10C042A
:1087B000C4F1200500FA04F320FA05F001FA04F2EE
:1087C00040EA020001F0004110EBD37041F10001DA
:1087D0005EEA430E08BF20EAD37070BDC4F12005E5
:1087E00000FA05F24EEA020E20FA04F301FA05F24D
:1087F00043EA020321FA04F001F0004121FA04F2F5
:1088000020EA020000EBD3705EEA430E08BF20EAC4
:10881000D37070BD94F0000F0FD101F000464000FE
:1088200041EB010111F4801F08BF013CF7D041EA80
:10883000060195F0000F18BF704703F00046520084
:1088400043EB030313F4801F08BF013DF7D043EA55
:108850000603704794EA0C0F0CEA135518BF95EA0B
:108860000C0F0CD050EA410618BF52EA4306D1D192
:1088700081EA030101F000414FF0000070BD50EAB1
:10888000410606BF1046194652EA430619D094EA3B
:108890000C0F02D150EA013613D195EA0C0F05D125
:1088A00052EA03361CBF104619460AD181EA030179
:1088B00001F0004141F0FE4141F470014FF0000031
:1088C00070BD41F0FE4141F4780170BD70B54FF0CC
:1088D000FF0C4CF4E06C1CEA11541DBF1CEA13554C
:1088E00094EA0C0F95EA0C0F00F0A7F8A4EB05042E
:1088F00081EA030E52EA03354FEA013100F0888025
:108900004FEA03334FF0805545EA131343EA1263ED
:108910004FEA022245EA111545EA10654FEA0026A2
:108920000EF000419D4208BF964244F1FD0404F55B
:10893000407402D25B084FEA3202B61A65EB0305B7
:108940005B084FEA32024FF480104FF4002CB6EB74
:10895000020E75EB030E22BFB61A754640EA0C00F4
:108960005B084FEA3202B6EB020E75EB030E22BF34
:10897000B61A754640EA5C005B084FEA3202B6EB75
:10898000020E75EB030E22BFB61A754640EA9C0034
:108990005B084FEA3202B6EB020E75EB030E22BF04
:1089A000B61A754640EADC0055EA060E18D04FEAC2
:1089B000051545EA16754FEA06164FEAC30343EA62
:1089C00052734FEAC2025FEA1C1CC0D111F4801F2F
:1089D0000BD141EA00014FF000004FF0004CB6E728
:1089E00011F4801F04BF01430020B4F1FD0C88BFC7
:1089F000BCF5E06F3FF6AFAEB5EB030C04BFB6EBD2
:108A0000020C5FEA500C50F1000041EB045170BDC4
:108A10000EF0004E4EEA113114EB5C04C2BFD4EBF1
:108A20000C0541EA045170BD41F480114FF0000E75
:108A3000013C90E645EA060E8DE60CEA135594EAF1
:108A40000C0F08BF95EA0C0F3FF43BAF94EA0C0FF4
:108A50000AD150EA01347FF434AF95EA0C0F7FF469
:108A600025AF104619462CE795EA0C0F06D152EABD
:108A700003353FF4FDAE1046194622E750EA4106A1
:108A800018BF52EA43067FF4C5AE50EA41047FF4B2
:108A90000DAF52EA43057FF4EBAE12E74FF0FF3C17
:108AA00006E000BF4FF0010C02E000BF4FF0010CE8
:108AB0004DF804CD4FEA410C7FEA6C5C4FEA430C61
:108AC00018BF7FEA6C5C1BD001B050EA410C0CBFB0
:108AD00052EA430C91EA030F02BF90EA020F002012
:108AE000704710F1000F91EA030F58BF994208BF79
:108AF00090422CBFD8176FEAE37040F00100704736
:108B00004FEA410C7FEA6C5C02D150EA013C07D18C
:108B10004FEA430C7FEA6C5CD6D152EA033CD3D0D7
:108B20005DF8040B704700BF8446104662468C46D1
:108B30001946634600E000BF01B5FFF7B7FF002804
:108B400048BF10F1000F01BD4DF808EDFFF7F4FF2D
:108B50000CBF012000205DF808FB00BF4DF808EDB8
:108B6000FFF7EAFF34BF012000205DF808FB00BFDB
:108B70004DF808EDFFF7E0FF94BF012000205DF8FD
:108B800008FB00BF4DF808EDFFF7CEFF94BF0120B2
:108B900000205DF808FB00BF4DF808EDFFF7C4FFAB
:108BA00034BF012000205DF808FB00BF4FEA410CF4
:108BB0007FEA6C5C02D150EA013C0AD14FEA430CD7
:108BC0007FEA6C5C02D152EA033C02D14FF0000014
:108BD00070474FF0010070474FEA410212F5001252
:108BE00015D211D56FF47873B3EB625212D94FEAF4
:108BF000C12343F0004343EA505311F0004F23FADE
:108C000002F018BF404270474FF00000704750EA32
:108C1000013005D111F0004008BF6FF000407047EF
:108C20004FF00000704700BF4A0011D212F5001249
:108C300011D20DD56FF47873B3EB62520ED44FEAB4
:108C4000C12343F0004343EA505323FA02F0704734
:108C50004FF00000704750EA013002D14FF0FF3072
:108C600070474FF0000070474FEA4102B2F1E04315
:108C700024BFB3F5001CDCF1FE5C0DD901F0004C03
:108C80004FEAC0024CEA5070B2F1004F40EB830053
:108C900008BF20F00100704711F0804F21D113F17F
:108CA0003872BCBF01F00040704741F480114FEAB8
:108CB0005252C2F11802C2F1200C10FA0CF320FA41
:108CC00002F018BF40F001004FEAC1234FEAD3235E
:108CD00003FA0CFC40EA0C0023FA02F34FEA4303C8
:108CE000CCE77FEA625307D150EA01331EBF4FF051
:108CF000FE4040F44000704701F0004040F0FE406C
:108D000040F40000704700BF4FF0FF3C06E000BF9A
:108D10004FF0010C02E000BF4FF0010C4DF804CD04
:108D20004FEA40024FEA41037FEA226C18BF7FEA14
:108D3000236C11D001B052EA530C18BF90EA010F16
:108D400058BFB2EB030088BFC81738BF6FEAE170A5
:108D500018BF40F0010070477FEA226C02D15FEA41
:108D6000402C05D17FEA236CE4D15FEA412CE1D0AD
:108D70005DF8040B704700BF844608466146FFE774
:108D80000FB5FFF7C9FF002848BF10F1000F0FBD56
:108D90004DF808EDFFF7F4FF0CBF012000205DF84F
:108DA00008FB00BF4DF808EDFFF7EAFF34BF0120D4
:108DB00000205DF808FB00BF4DF808EDFFF7E0FF6D
:108DC00094BF012000205DF808FB00BF4DF808EDBE
:108DD000FFF7D2FF94BF012000205DF808FB00BF21
:108DE0004DF808EDFFF7C8FF34BF012000205DF803
:108DF00008FB00BF53B94AB9002908BF00281CBFAF
:108E00004FF0FF314FF0FF3000F0ACB9ADF1080C7E
:108E10006DE904CE00F03EF8DDF804E0DDE9022360
:108E200004B0704738B505460C4628462146002256
:108E30000023FFF793FE28B928462146BDE83840B5
:108E400000F00AB8284604F1004100F005F840425D
:108E500061EB410138BD00BFD0B50C4B0022064686
:108E60000F46FFF709FCFFF7DFFE0446FFF78AFB1A
:108E7000074B0022FFF700FC02460B4630463946FE
:108E8000FFF742FAFFF7D0FE2146D0BD0000F03DCB
:108E90000000F0412DE9F047089E0D460446884643
:108EA000002B4DD18A42944668D9B2FA82F252B16F
:108EB00001FA02F3C2F1200120FA01F10CFA02FCDE
:108EC00041EA030894404FEA1C45210CB8FBF5FE2B
:108ED0001FFA8CF705FB1E8341EA03430EFB07F1E3
:108EE00099420BD91CEB03030EF1FF3080F01E8179
:108EF000994240F21B81AEF1020E63445B1AA4B2A8
:108F0000B3FBF5F005FB103344EA034400FB07F71D
:108F1000A7420AD91CEB040400F1FF3380F008815A
:108F2000A74240F2058164440238E41B40EA0E4047
:108F300000211EB1D4400023C6E90043BDE8F087FC
:108F40008B4208D9002E00F0EE800021C6E9000512
:108F50000846BDE8F087B3FA83F100294AD1AB4255
:108F600002D3824200F2F980841A65EB03030120E8
:108F70009846002EE2D0C6E90048DFE702B9FFDEDE
:108F8000B2FA82F2002A40F09180A1EB0C054FEA80
:108F90001C471FFA8CFE0121B5FBF7F307FB1350AA
:108FA000250C45EA00450EFB03F0A84208D91CEB4E
:108FB000050503F1FF3802D2A84200F2CB804346F8
:108FC0002D1AA4B2B5FBF7F007FB105544EA05448F
:108FD0000EFB00FEA64508D91CEB040400F1FF358A
:108FE00002D2A64500F2BB802846A4EB0E0440EA5C
:108FF00003409EE7C1F120078B4022FA07FC4CEAB0
:10900000030C20FA07F405FA01F31C43FD404FEA74
:109010001C4900FA01F3B5FBF9F8200C1FFA8CFE8D
:1090200009FB185540EA054508FB0EF0A84202FA74
:1090300001F20BD91CEB050508F1FF3A80F088809E
:10904000A84240F28580A8F1020865442D1AA4B216
:10905000B5FBF9F009FB105544EA054500FB0EFE8F
:10906000AE4508D91CEB050500F1FF346CD2AE45C6
:109070006AD90238654440EA0840A0FB0294A5EB97
:109080000E05A542C846A64656D353D05EB1B3EBF3
:10909000080265EB0E0505FA07F722FA01F3CD4049
:1090A0001F43C6E900750021BDE8F087C2F1200327
:1090B00020FA03F10CFA02FC25FA03F395400D4364
:1090C0004FEA1C471FFA8CFEB3FBF7F107FB113088
:1090D0002B0C43EA004301FB0EF0984204FA02F421
:1090E00008D91CEB030301F1FF382FD298422DD988
:1090F000023963441B1AADB2B3FBF7F007FB103320
:1091000045EA034500FB0EF3AB4208D91CEB05050D
:1091100000F1FF3816D2AB4214D902386544ED1A7B
:1091200040EA014138E73146304607E78646E5E642
:109130001846FAE64B45A9D2B9EB020864EB0C0ECF
:109140000138A3E74046EAE7204694E74146D1E7E5
:10915000D0467BE7023B654432E7084609E76444B2
:10916000023842E7704700BF80F0004002E000BFD5
:1091700081F0004142001FBF5FEA410392EA030F02
:109180007FEA226C7FEA236C6AD04FEA1262D2EB4C
:109190001363C1BFD218414048404140B8BF5B4251
:1091A000192B88BF704710F0004F40F4000020F0EA
:1091B0007F4018BF404211F0004F41F4000121F000
:1091C0007F4118BF494292EA030F3FD0A2F101024A
:1091D00041FA03FC10EB0C00C3F1200301FA03F188
:1091E00000F0004302D5494260EB4000B0F5000FAB
:1091F00013D3B0F1807F06D340084FEA310102F16A
:109200000102FE2A51D2B1F1004F40EBC25008BF1B
:1092100020F0010040EA03007047490040EB0000E5
:10922000013A28BFB0F5000FEDD2B0FA80FCACF1E6
:10923000080CB2EB0C0200FA0CF0AABF00EBC25013
:1092400052421843BCBFD0401843704792F0000F01
:1092500081F4000106BF80F400000132013BB5E754
:109260004FEA41037FEA226C18BF7FEA236C21D0CA
:1092700092EA030F04D092F0000F08BF084670472F
:1092800090EA010F1CBF0020704712F07F4F04D1FD
:10929000400028BF40F00040704712F100723CBF10
:1092A00000F50000704700F0004343F0FE4040F43A
:1092B000000070477FEA226216BF08467FEA2363F8
:1092C0000146420206BF5FEA412390EA010F40F4E3
:1092D000800070474FF0000304E000BF10F000432F
:1092E00048BF40425FEA000C08BF704743F0964316
:1092F00001464FF000001CE050EA010208BF704731
:109300004FF000030AE000BF50EA010208BF7047B7
:1093100011F0004302D5404261EB41015FEA010CCC
:1093200002BF84460146002043F0B64308BFA3F1C4
:109330008053A3F50003BCFA8CF2083AA3EBC253A6
:1093400010DB01FA02FC634400FA02FCC2F12002C5
:10935000BCF1004F20FA02F243EB020008BF20F0FC
:109360000100704702F1200201FA02FCC2F1200262
:1093700050EA4C0021FA02F243EB020008BF20EA57
:10938000DC7070474FF0FF0C1CEAD0521EBF1CEA85
:10939000D15392EA0C0F93EA0C0F6FD01A4480EA73
:1093A000010C400218BF5FEA41211ED04FF000635C
:1093B00043EA501043EA5111A0FB01310CF0004088
:1093C000B1F5000F3EBF490041EAD3715B0040EAAE
:1093D000010062F17F02FD2A1DD8B3F1004F40EB7E
:1093E000C25008BF20F00100704790F0000F0CF051
:1093F000004C08BF49024CEA502040EA51207F3A15
:10940000C2BFD2F1FF0340EAC250704740F40000EF
:109410004FF00003013A5DDC12F1190FDCBF00F0E0
:1094200000407047C2F10002410021FA02F1C2F18E
:10943000200200FA02FC5FEA310040F1000053EA2A
:109440004C0308BF20EADC70704792F0000F00F078
:10945000004C02BF400010F4000F013AF9D040EA7E
:109460000C0093F0000F01F0004C02BF490011F412
:10947000000F013BF9D041EA0C018FE70CEAD15310
:1094800092EA0C0F18BF93EA0C0F0AD030F0004C90
:1094900018BF31F0004CD8D180EA010000F0004044
:1094A000704790F0000F17BF90F0004F084691F002
:1094B000000F91F0004F14D092EA0C0F01D142023C
:1094C0000FD193EA0C0F03D14B0218BF084608D105
:1094D00080EA010000F0004040F0FE4040F400004F
:1094E000704740F0FE4040F4400070474FF0FF0CE2
:1094F0001CEAD0521EBF1CEAD15392EA0C0F93EA29
:109500000C0F69D0A2EB030280EA010C49024FEA7A
:10951000402037D04FF0805343EA111143EA101333
:109520000CF000408B4238BF5B0042F17D024FF4EB
:10953000000C8B4224BF5B1A40EA0C00B3EB510FC6
:1095400024BFA3EB510340EA5C00B3EB910F24BFAF
:10955000A3EB910340EA9C00B3EBD10F24BFA3EB34
:10956000D10340EADC001B0118BF5FEA1C1CE0D1FC
:10957000FD2A3FF650AF8B4240EBC25008BF20F0AF
:10958000010070470CF0004C4CEA50207F32C2BF03
:10959000D2F1FF0340EAC250704740F400004FF0A0
:1095A0000003013A37E792F0000F00F0004C02BFD1
:1095B000400010F4000F013AF9D040EA0C0093F09B
:1095C000000F01F0004C02BF490011F4000F013BF5
:1095D000F9D041EA0C0195E70CEAD15392EA0C0F5D
:1095E00008D142027FF47DAF93EA0C0F7FF470AF95
:1095F000084676E793EA0C0F04D14B023FF44CAFD8
:1096000008466EE730F0004C18BF31F0004CCAD16C
:1096100030F000427FF45CAF31F000437FF43CAFA8
:109620005FE700BF4FEA4002B2F1FE4F0FD34FF0A9
:109630009E03B3EB12620DD94FEA002343F00043BF
:1096400010F0004F23FA02F018BF404270474FF06D
:109650000000704712F1610F01D1420205D110F0F4
:10966000004008BF6FF0004070474FF000007047A7
:1096700042000ED2B2F1FE4F0BD34FF09E03B3EB7C
:10968000126209D44FEA002343F0004323FA02F0A8
:1096900070474FF00000704712F1610F01D1420294
:1096A00002D14FF0FF3070474FF00000704700BF0D
:1096B000014B1868704700BFC0340020064A137879
:1096C00043F004031370054BD3F8483313B11B69FF
:1096D00003B11847704700BF801300208413002097
:1096E000024B1A8810431880704700BFA41800204E
:1096F00037B50023044601A80093ADF8043000F00C
:1097000045F86D46009095E8030084E80300204684
:1097100003B030BD024B9868024BC04318607047DD
:1097200000280040B0190020014B1868704700BFA6
:10973000B0190020034B044A9B681068DB43181AD9
:10974000704700BF00280040B0190020034B187874
:1097500010B1034B9868C043704700BFC018002089
:10976000002800400320704708B501464FF47A7284
:1097700000238002890DFFF73DFB08BD4FF47A738B
:10978000A0FB03309B0A43EA80507047094B0A4A0A
:109790009B6810B5DB43D2F808414FF47A71C3F3EC
:1097A0000902A2FB0121920A9B0A028043EA84502B
:1097B00010BD00BF0028004000B00040014BC3F8BE
:1097C0000001704700B00040014BC3F8040170472E
:1097D00000B00040014BD3F80001704700B00040DA
:1097E000014BD3F80401704700B00040014B1868EA
:1097F000704700BF4435002070470000014B012234
:109800001A7070476C30002010B50C4C0346A34210
:10981000184600D910BD1A4612F8011B3039092923
:1098200001D81346F3E7184601330278303A092A83
:10983000F0D9A3421846F6D9ECE700BFBB340020AC
:10984000A0F13003092B01D8D8B27047044BC35C98
:1098500003F00303012B08BF20305738C0B2704714
:109860008C1E020838B501EB4202441E0878FFF74F
:10987000E7FF05464878FFF7E3FF023140EA0510AD
:10988000914204F8010FF1D138BD0B7803704B7889
:1098900043708B788370CB78C3700B7903714B79ED
:1098A00043718B798371CB79C3710B7A03724B7AD5
:1098B00043728B7A8372CB7AC3720B7B03734B7BBD
:1098C00043738B7B8373CB7BC373704770B50A780C
:1098D00003782E4C5340427FA25C53400370837F39
:1098E0004278E35C53404370C37F8278E35C53402B
:1098F0008370037FC278E35C5340C3700A78D30956
:1099000003EB430303EBC30383EA42030B700246FA
:10991000034600F10C0115791678754015715678DB
:109920005579754055719678957975409571D678C9
:10993000D5797540D57104328A42ECD1027B057C21
:10994000A25C6A400274427B457CA25C6A4042741D
:10995000827B857CA25C6A408274C27BA25CC47CF0
:109960006240C2741A7D187C42401A75587C5A7D38
:1099700042405A75987C9A7D42409A75D87CDA7D2F
:109980004240DA7504338B42ECD170BD7816020880
:109990000A4B1A6870B5002302F1100503EB03149B
:1099A0002E5D864204D1103422440A60002070BD2E
:1099B00001330A2BF2D10320F9E700BFC4190020BC
:1099C000024B01225A70024B5B6918479407002032
:1099D00008010020014B1878704700BF9407002051
:1099E000014B5878704700BF940700207047000073
:1099F000044B054A93F80431022B18BF062382F862
:109A000094347047900D002084130020054AD2F84A
:109A10001A300360D2F81E30436001460822024823
:109A20000EF0F2BBC03400201DF101081FB50C4B35
:109A30008DF8090093F874208DF80A200D228DF816
:109A4000082093F8802012B10E228DF8082093F898
:109A5000400002A909F01EFAC0B205B05DF804FB8F
:109A6000900D00200B4600F1006101F57E31184693
:109A700014F052B80D4B0246D3E90001014382B005
:109A800008D10B48D0F8801509BA5960D0F8841570
:109A900009BA1960D3E90001CDE900016B4603CB97
:109AA000C2F81A00C2F81E1002B070472835002014
:109AB0000070FF1F38B50E4D0E4CA0B199B1286053
:109AC000E16001230C490D48627223700EF040FCE6
:109AD00000250B482582202229460AF06DFE65707C
:109AE000A574A58638BD00232B602370F0E700BF66
:109AF0009007002094070020C1990008A8180020B2
:109B0000A807002010B50A4C04F204400FF036FA02
:109B100094F81E3413B1012384F81D34D4F848336B
:109B200023B11B6913B1BDE81040184710BD00BF39
:109B30008413002010B50C4CD4F8403343F080035C
:109B4000C4F8403394F81E3413B10020FFF7DAFF55
:109B500094F8953423F0220343F0220384F89534DB
:109B6000BDE81040FFF744BF841300200F4890F871
:109B70001F3480F8B8330E4B93F8612080F8BB2374
:109B800093F8752080F8C82393F8802080F8C923C3
:109B900093F81C3180F8CC330022A0F8CA2300F5DA
:109BA0006E7100F560700FF00FBA00BF84130020D3
:109BB000900D0020114890F89434EBB190F81F34C8
:109BC00080F8D0330E4B5A6EC0F8D42393F875202A
:109BD00080F8E02393F8802080F8E12393F81C318B
:109BE00080F8E4334FF48072A0F8E22300F574713A
:109BF00000F566700FF0E8B9704700BF84130020CD
:109C0000900D00207FB5092301A88DF804300AF0DB
:109C1000D5FD0038044B059A1A6018BF0120404258
:109C200007B05DF804FB00BFF807002000F10060FA
:109C300000F57E300BF07ABA08B5054B0122DA65E3
:109C40000EF0F2FB034B4FF0FF321A63002008BD09
:109C50000028004084300020F8B5164D2E783EBB19
:109C6000154C4FF0FF372763FFF7E6FF0EF0DCFBE4
:109C700094F82C302763012B12D0022384F82D3066
:109C80000E4BCA225A6253225A629A6942F020024B
:109C90009A61FF225A62012384F82D3084F82C60E7
:109CA000074B0022C3F80821FFF734FD01232B7076
:109CB0000020F8BDC018002084300020002800409B
:109CC00000B0004070B504460B46164962784A70F1
:109CD0000020A2780A7208701A884A729A788A72EA
:109CE000DB780B746368CB60237803F0FB030A2BEB
:109CF00003D00D4B1B68DB6A98470C4E052556F8C0
:109D0000043B1BB15B6A0BB120469847013D15F03F
:109D1000FF05F4D12378062B02BF054B01221A70F0
:109D200070BD00BF5001002020130020241300202C
:109D3000FC07002070B504461048114E0123037043
:109D400063784370A3788372E368C360E378037633
:109D500023694376237943720A4B1B689B6A9847B1
:109D6000052556F8043B1BB19B690BB1204698476B
:109D7000013D15F0FF05F4D170BD00BF6801002062
:109D800024130020201300200BF05CBE7F200EF077
:109D9000A1BE0AF029BE00000C4B70B520220C4C6D
:109DA0009A62256840F6B7360BF00EFE28B10BF02C
:109DB00019FA23685B1BB34203D9044B20229A6132
:109DC00070BD32200CF062F9EEE700BF00040048DD
:109DD000443500202D4B07B520229A612C4B9B7DEA
:109DE00033B94FF0904304229A624FF400729A62A2
:109DF000284A2949022393710B6823F040030B6022
:109E00004FF0B0414FF480204B6E23F001034B66BE
:109E1000224BC3F88400BFF34F8FBFF36F8F2048EE
:109E2000D0F8903023F48053C0F890301D4B9868E0
:109E300020F4006098604FF400609861D1F894308D
:109E400043F40043C1F89430174B1B681C20434374
:109E5000DB0C642043430193019B5BB901239360B6
:109E600000219160517191716BB1104A152301204D
:109E70000BF0ECF8019B013B0193D1F894305B04AB
:109E8000EAD50023ECE703B05DF804FB00040048CA
:109E9000C0340020343500200000015800E100E00B
:109EA0000008005800040058640100202EF1010849
:109EB00010B5144608A3D3E90023FEF7DDFB15F027
:109EC0001FF8FEF789FE0316237003146370031254
:109ED000A370E07010BD00BF0000000080842E4120
:109EE00008B500200BF062F901200BF05FF9034B7D
:109EF0000020C3E90000986008BD00BF503000207A
:109F00000FB400B5A3B024AB802153F8042B019308
:109F100002A814F0CBFD011E02DB02A80BF092FD9B
:109F200023B05DF804EB04B07047000010B549227F
:109F300001212548254CFFF7E3FF2548FFF7E0FF07
:109F40002448FFF7DDFF21682348FFF7D9FF616848
:109F50002248FFF7D5FFA1682148FFF7D1FF94F908
:109F600014102048FFF7CCFFE1681F48FFF7C8FF37
:109F700021691E48FFF7C4FFE17D1D48FFF7C0FFC0
:109F8000217E1C48FFF7BCFFA17D1B48FFF7B8FFEF
:109F9000617D1A48FFF7B4FF617E1948FFF7B0FFF3
:109FA00094F85A10174A002302EBC3000079884244
:109FB00006D152F833101448FFF7A2FF002010BD5D
:109FC00001330A2BF0D1F9E76AF10108C03400200F
:109FD00078F1010887F1010893F10108A2F1010865
:109FE000B1F10108CDF10108E0F10108FFF101082C
:109FF0001EF2010837F2010851F201086AF2010865
:10A000007DF201081C12020899F20108F0B5224EF7
:10A01000224AB568536822481268224F91B02946F7
:10A02000FFF76EFF0024AC4202D1002011B0F0BD5A
:10A0300021460AAA30460EF038FF9DF83E100991DD
:10A04000BDF83C100891DDE90C01CDE90601DDE920
:10A050000A01CDE904019DF83810BDF83A309DF8A9
:10A060003B2001F03F010391BDF83810C1F3851189
:10A0700002910E99C1F3043101919DF83A10C1F398
:10A0800044010091C3F38313214692083846FFF739
:10A0900037FF0134C7E700BF50300020C034002034
:10A0A000B1F20108D5F201082DE9F8431048114D2D
:10A0B000DFF84480DFF84490114FFFF721FF1624AA
:10A0C0004046FFF71DFF2868FFF71AFFAE682EB164
:10A0D0004846FFF715FF3046FFF712FF3846FFF7F7
:10A0E0000FFF013C05F10C05EAD12046BDE8F883DD
:10A0F00000F30108FC120208E5FA010810F3010858
:10A1000019FF010808B530B18379622B02BF034BF8
:10A11000034AC3F800210AF087FF00BF00B00040E7
:10A12000040302012DE9F74F0023484F484E494CE4
:10A130008DF806300DF1060138460DF05FF850B984
:10A14000454C0DF1060120460DF058F8002878D155
:10A1500003B0BDE8F08F9DF806307F2B12D1327826
:10A160007F2A0FD100232360012179230DF10700FD
:10A170008DF807300BF066FC14200BF087FF374892
:10A18000FFF7C0FF0A2B337001D00D2B33D12368AA
:10A190007BB3DFF8CC90DFF8CCB000250C2303FBB9
:10A1A00005F858F809A05046FEF752F859460246FD
:10A1B000504614F0E9FB0C23B0B9C8442948D8F83C
:10A1C00004309847054610B92748FFF799FE00214B
:10A1D000244821604FF4806210F0B0FA002DA9D01D
:10A1E0002846FFF78DFEA5E70135162DD7D11F4D67
:10A1F000EDE71E4DF4E72268B2F5806F07D300212A
:10A200004FF480621748216010F098FA92E7082B0B
:10A210000AD12368002B8DD02368124A0021D15423
:10A220002368013B236085E7114A0E49D25C02F0A6
:10A230000302012A226808BF20338B5423680133AC
:10A24000F0E70DF106000EF017F97AE7801B002009
:10A2500040350020BC3400204020002014F30108C9
:10A26000FC120208BC300020141202089A120208E4
:10A270008C1E0208F8B5104C104D2023A3622E68E6
:10A2800040F6B7370BF0A0FB28B1FFF74BFF2B6868
:10A290009B1BBB4203D9084B20229A61F8BD322098
:10A2A0000BF0F4FE63691A04DB4302F4001203F0BE
:10A2B00020031343A361E5E7000400484435002070
:10A2C00037B5184DEB7D4BBB0CF034FE0CF032FE75
:10A2D000014628B3431E00F10F02134813F8014F43
:10A2E000245C14F0440F1BD09A42F7D10C7CBCB90B
:10A2F00008226846FFF7B6FA08220C4869460DF0B6
:10A3000083FF6B4603CB0A4BC5F81A0059600AF06D
:10A3100063FB0AF057FF204603B030BD0548FBE75A
:10A320000548F9E7C03400208C1E020825F3010817
:10A33000DA3400200C110208B012020837B5184DAB
:10A34000EB7D4BBB0CF0F6FD0CF0F4FD014628B3A1
:10A35000431E00F10F02134813F8014F245C14F060
:10A36000440F1BD09A42F7D10C7CBCB90822684636
:10A37000FFF778FA08220C4869460DF045FF6B4656
:10A3800003CB0A4BC5F8220059600AF025FB0AF0FE
:10A3900019FF204603B030BD0548FBE70548F9E743
:10A3A000C03400208C1E02083EF30108E234002075
:10A3B0000C110208B012020830B51C4BDB7D85B0D1
:10A3C00083BB0CF0B7FD0CF0B5FD014660B3431E36
:10A3D00000F11F02164813F8014F245C14F0440FDB
:10A3E00022D09A42F7D191F82030EBB9102268467A
:10A3F000FFF738FA0F4C1048102269460DF004FFA1
:10A4000004AD6B461A4603CAAA4220606160134637
:10A4100004F10804F6D10AF0DFFA0AF0D3FE0020B6
:10A4200005B030BD0548FBE70548F9E7C03400201A
:10A430008C1E0208EA34002057F301080C110208B0
:10A44000B012020830B589B00CF074FD0CF072FD4A
:10A45000014640B3431E00F13F02144813F8014F78
:10A46000245C14F0440F1ED09A42F7D191F840308A
:10A47000CBB920226846FFF7F5F90D4C0D48202294
:10A4800069460DF0C1FE08AD6B461A4603CAAA42E2
:10A4900020606160134604F10804F6D10AF09CFACA
:10A4A000002009B030BD0448FBE700BF8C1E020845
:10A4B000FA34002057F30108B01202082DE9F043E6
:10A4C0000446D0F8140185B00E46154604F2011773
:10A4D00088B3C0F110099145C84628BF90461FFABD
:10A4E00088F2384409F004FBD4F8143143440F2BAC
:10A4F000C4F8143128D9A94526D204F1F1039946AC
:10A5000013F8012BD97BBB4282EA010203F8012C2C
:10A51000F6D110224946684609F0EAFA2246694611
:10A5200068460EF09DFC10226946484609F0E0FAA4
:10A530004644A5EB0805102D09D8AAB23146384685
:10A5400009F0D6FAC4F8145105B0BDE8F08304F15F
:10A55000F103711E98461A7811F8010F424003F872
:10A56000012BBB42F7D110224146684609F0C0FAE0
:10A570002246694668460EF073FC10226946404642
:10A5800009F0B6FA1036103DD5E7000073B5144C4B
:10A59000144D04F57A766B6C95F9701095F84000BF
:10A5A00095F84820009608F0CBF895F81C3184F80F
:10A5B000FC3395F8400040F201233146A4F8FA3309
:10A5C0000DF0ACFA50B194F8283484F86E340020C1
:10A5D00007F014FE94F8FB3384F8943402B070BD95
:10A5E00084130020900D002013B50023044601A819
:10A5F0000093ADF80430FFF7C9F80090FFF7F0F8CA
:10A600000246FFF7E7F8009B1844BDF804301344F6
:10A610009AB21BB2B3F57A7FA2BF0130A2F57A736A
:10A620001BB220602046A38002B010BD08B5FFF722
:10A630008DF8BDE80840FFF7A1B810B50246FFF756
:10A6400085F804461046FFF78FF8201ABDE8104041
:10A65000FFF794B8F8B5184F97F80431022B064667
:10A660000D4601D00BF062FD144C94F8942494F83C
:10A670001E34CAB90BB184F84564304607F072FE47
:10A68000F86AFFF7DAFFD4F8B433984208D30C48DD
:10A690000EF074FC94F8953443F0200384F895345C
:10A6A000BDE8F840FFF7A4B90BB184F8455428463B
:10A6B00007F058FEEEE700BF900D00208413002045
:10A6C0001C17002038B50146FFF74CF801230B7228
:10A6D0000D680446FFF72EF82044854203D2FFF7A9
:10A6E00029F804440C60BDE83840086800F010BA4E
:10A6F000044A13680BB10021197243611060FFF71F
:10A70000E1BF00BFC81900200B4A116810B503460D
:10A7100009B90A491160106809490A4C0344091B28
:10A720008B4206D90FF0CEFF0C2303604FF0FF30B1
:10A7300010BD1360FCE700BFD01900208037002057
:10A740000000012000040000024BD3F884301B6895
:10A75000184700BFF81A002013B50C4CD4F8843009
:10A760005B6898474FF47A72B0FBF2F302FB130078
:10A770000090074A8021204614F016F90146204631
:10A7800002B0BDE81040FFF7DFBF00BFF81A00209D
:10A79000841202080EB470B51D4C94F88030184233
:10A7A00093B027D0FFF7D8FF18AB8021179A0193F9
:10A7B000204614F07BF97F28014620DC002821DBAD
:10A7C00000241348FFF7C0FF12480221FFF7BCFF27
:10A7D00084B1114B02AA03F1400615461868596866
:10A7E000144603C40833B3422246F7D13F2128461A
:10A7F000FFF7AAFF13B0BDE8704003B07047802197
:10A800000124DEE705481D21FFF79EFF0024DBE75A
:10A81000F81A002019FF010870F3010878170208E0
:10A82000114B186840F6E34283B2934210B517D932
:10A8300041F26702934215D8A3F6E440FEF74EFDBD
:10A840000A49FEF753FE0A49FEF79CFDFEF710FF8A
:10A85000C4B2084922460820FFF79CFF204610BDDD
:10A860000024F6E7FE24F4E78C0100200000614498
:10A8700000007E43B0F3010837B5FFF7D7FE0F4B5A
:10A880000F4D18606C462046FFF7AEFE94E80300BB
:10A890000C4A05F54E7383E80300137843F0200358
:10A8A0001370D5F8483313B11B6903B198470649B3
:10A8B000082003B0BDE83040FFF76CBFCC19002082
:10A8C0008413002080130020DEF3010870B50F4CC4
:10A8D0001D460646FFF7AAFE62810D4A21811378C4
:10A8E000257323F0110343F011031370094BD3F8C0
:10A8F0004833C4E9000613B11B6903B19847BDE8AA
:10A90000704005490820FFF745BF00BFB41900207B
:10A91000801300208413002000F40108094A08B5C0
:10A92000137843F008031370074BD3F8483313B17F
:10A930001B6903B19847BDE8084004490820FFF7A8
:10A9400029BF00BF801300208413002022F40108D7
:10A95000094A08B5137843F002031370074BD3F884
:10A96000483313B11B6903B19847BDE80840044957
:10A970000820FFF70FBF00BF8013002084130020C2
:10A9800047F4010830B50D4685B00446002830D0A4
:10A9900000292ED018490820FFF7FCFE95F90A304F
:10A9A000039395F90930029395F9083001932378C0
:10A9B0002A7C0093114B124953F82230EA68082090
:10A9C000FFF7E8FE627861680E480DF01DFC237801
:10A9D000032B0ED16378012B0BD163681878012803
:10A9E00002D0022800D020B905B0BDE830400EF0FA
:10A9F00001BA05B030BD00BF6CF401086014020854
:10AA0000A0F40108EDF4010813B5044650B303782F
:10AA100043B318490820FFF7BDFE94F9183001939D
:10AA200094F90A300093237CE26813490820FFF769
:10AA3000B1FE627C616911480DF0E6FB1049082007
:10AA4000FFF7A8FE237A012B0ED1617A0D4A0E4B37
:10AA50000820002908BF1A460C49FFF79BFE0C4B43
:10AA600001221A7002B010BD0A490820FFF792FEB9
:10AA7000F5E700BF01F5010835F501086EF501089D
:10AA80007AF50108FDF40108FCF401088EF50108CF
:10AA90006E300020A4F5010838B50A4605460C467C
:10AAA00002200549FFF776FE224628460349BDE805
:10AAB000384013F031B800BFB7F5010800E00308D3
:10AAC00038B50A4604460D4601460B4813F05CFFB4
:10AAD00028B9BDE8384009490120FFF75BBE0849A5
:10AAE0000120FFF757FE0AF06DFB2A462146024877
:10AAF000BDE838400AF01ABB00E00308CAF50108B7
:10AB0000EAF5010801490820FFF744BEFBF50108FA
:10AB100010B50446FFF790F8254B264A186892F8BE
:10AB20002C300444012B6FEA040405D1224904208F
:10AB3000FFF730FE002010BD012382F82C300223E5
:10AB400082F82D301D4BD96801F44071B1F5807F3A
:10AB500018BF9869CA20586253205862986920F437
:10AB600088509861B1F5807F4FF00100D8654FF0B3
:10AB700000511CBF002018645964104B10481C671A
:10AB8000116B41F001011163996941F48851996198
:10AB9000D0F8801041F40031C0F88010FF215962D4
:10ABA000012382F82D30002382F82C30C2E700BF49
:10ABB000B01900208430002014F60108002800405D
:10ABC0000008005838B5074D074A297852F8203058
:10ABD00052F82120054904460820FFF7DBFD2C70C0
:10ABE00038BD00BF20350020FC11020835F60108F1
:10ABF00083B50646002840F09C8092490820FFF764
:10AC0000C9FD0DF021FD904B07229A610524FFF745
:10AC1000E1F80AF0D9FE0028FBD18B4B1A6842F408
:10AC200080721A604FF0B0420120916D41F4806152
:10AC30009165926D02F480620192019A9A6822F005
:10AC400001029A609A6822F004029A600722C3F80F
:10AC500088009A614FF480729A614FF400629A61A1
:10AC60000AF002FF0AF0B6FE002870D104200AF0B4
:10AC7000FBFEA10740F1C280744C754D7F22FF2777
:10AC80000023C4E902274FF08042C4E90053C4E91D
:10AC90000433C4E90723A3616362022384F82D30DF
:10ACA000CA236B6253236B620CF058F9002850D111
:10ACB00042F20113A8616B604FF6FF7328606B616D
:10ACC000644B2B613F232864A864E862A86268642F
:10ACD000E864EB650CF068F900283AD15E4B4FF45C
:10ACE00034021A6058609860D86023686F62AB4283
:10ACF0001BD14FF0B043D3F8902022F40042C3F8A8
:10AD000090209A6D22F480629A65544B0422C3F815
:10AD10008020BFF34F8FBFF36F8F4FF48062C3F873
:10AD20008420BFF34F8FBFF36F8F002384F82D3043
:10AD300012E0701C04D14A490820FFF72BFD65E79B
:10AD4000484932460820FFF725FD07245FE78420A5
:10AD50008DE73F4BFF225A62002784F82C700CF0DD
:10AD600049F9054618B146233F4A002105E00CF099
:10AD7000E1F920B13C4A4C2329460AF067F90DF06D
:10AD800063FC314B07229A6194F82C30012B4FF071
:10AD9000020054D0012384F82C302D4B84F82D0070
:10ADA000CA225A6253225A629A6922F480629A61D4
:10ADB0000422DA65DA68520605D42C480568DA6898
:10ADC00012F004022FD0224B29495E619A6922F0C9
:10ADD000070242F004029A61D1F8802042F4801206
:10ADE000C1F880209A6942F488429A61FF225A622F
:10ADF000012384F82D30002384F82C30124B9A68FC
:10AE000022F400729A601A6842F007021A60194A26
:10AE1000136943F00403136130BF174A174940F226
:10AE20007B130020A9E70168491BB1F57A7FC6D9D9
:10AE3000FF210320596284F82D0084F82C208D23F3
:10AE400092E700BF56F60108000400588430002045
:10AE500000280040FF007F0000B0004000E100E05B
:10AE600066F6010887F60108B6F6010844350020A9
:10AE70000008005800ED00E0EFF6010822F7010895
:10AE80002DE9F04F4D4C5523AA22C4E9033291B06D
:10AE900001220027C4E90023494BA760054603931C
:10AEA0003E461822FF2104A84FF000080FF046FC90
:10AEB000DDF80CB0C246C146E268904551D3BAF104
:10AEC000000F78D032463F49CDF800A04B46022013
:10AED000FFF760FC30460AF069F90022E36827B901
:10AEE000934284BFC4E900620127A1680A44039920
:10AEF000A26001F500610391002E30D001936368D8
:10AF00000093236830493046FFF744FC2F4B30490B
:10AF1000D3F800210132C3F800212E4B08201B6911
:10AF2000FFF738FCA468BCB1182200210AA80FF072
:10AF300005FC0AAA2148611E0DF0B7FFDDE90A23CE
:10AF4000C5E90023DDE90C23C5E90223BDF83C3047
:10AF50002B829DF83E306B8211B0BDE8F08F012648
:10AF60009FE7DE46BEE80F000DF1280CACE80F00AD
:10AF70009EE8030018228CE803000AA904A813F035
:10AF800003FD30B909F1010908F101080BF1180BB3
:10AF900092E717239DF83F001A460AA9013A04D206
:10AFA000984218BF0AF1010AEEE711F801CBA3EBB2
:10AFB0000C03DBB2F2E7A2EB09028FE7503000206E
:10AFC00000E803083FF701087AF7010800B00040E5
:10AFD000D0F70108C0340020024A03490820FFF7D7
:10AFE000D9BB00BFD412020801F8010808B5044A11
:10AFF00004490820FFF7CEFB034B01221A7008BD5D
:10B00000C512020801F801086D300020024A034908
:10B010000820FFF7BFBB00BFE012020801F80108DB
:10B02000024A03490820FFF7B5BB00BFEF12020830
:10B0300001F8010837B5FEF7E7FBFEF7E5FB0378FB
:10B04000303B092B02D90B4803B030BD002401A9C5
:10B0500001940BF063FF0028F5D0019D06490820FC
:10B060002B462A46FFF796FB044B1D6009F0B4FC03
:10B070002046E9E7B01202082BF80108C03400208E
:10B0800037B5FEF7C1FBFEF7BFFB0378303B092B5A
:10B0900002D90B4803B030BD002401A901940BF084
:10B0A0003DFF0028F5D0019D064908202B462A4681
:10B0B000FFF770FB044B5D6009F08EFC2046E9E76A
:10B0C000B012020853F80108C034002037B5FEF76B
:10B0D0009BFB0378303B092B02D90B4803B030BDF2
:10B0E000002401A901940BF019FF0028F5D0019D5F
:10B0F000064908202B462A46FFF74CFB044B9D606F
:10B1000009F06AFC2046E9E7B01202087BF8010862
:10B11000C034002037B5FEF777FB0378303B092BAE
:10B1200002D90B4803B030BD002401A901940BF0F3
:10B13000F5FE0028F5D0019D064908202B462A4639
:10B14000FFF728FB044BDD6009F046FC2046E9E7E9
:10B15000B0120208B0F80108C03400201A4E1B4992
:10B160001B481B4C08B55B2212F0D6FC33681B69E8
:10B170000BB1204698475A2284F85B206FF05A02A0
:10B18000002384F85C20124A84F85D305F25013D7D
:10B1900014D184F85E3033689B68984733680C4953
:10B1A0005B686022284698470A490220FFF7F2FAB6
:10B1B00009F01AFC0AF006F809F036FF12F8011B34
:10B1C0005B1ADBB2E3E700BF64300020041402081E
:10B1D000C0340020E8F8010837B5FEF715FB037806
:10B1E000303B092B02D90B4803B030BD002401A924
:10B1F00001940BF093FE0028F5D0019D064908202C
:10B200002B462A46FFF7C6FA044B1D6109F0E4FB02
:10B210002046E9E7B012020825F90108C0340020F1
:10B2200037B5FEF7F1FA0378303B092B18D8002424
:10B2300001A901940BF072FE90B1019D012D0FD870
:10B240002A460A490820FFF7A5FA094B05F001052F
:10B25000DD7509F0C1FB019B012B04D109F0E4FE6F
:10B26000044803B030BD2046FBE700BF5DF901088C
:10B27000C0340020B012020837B50BF05BFE0BF0B3
:10B2800059FE10B90E4803B030BD0378303B092B8E
:10B29000F8D8002401A901940BF040FE0028F1D059
:10B2A000019D012DEED82A4608200649FFF772FAC3
:10B2B000054B05F001051D7609F08EFB2046E2E7FF
:10B2C000B012020888F90108C0340020F8B50BF06C
:10B2D00031FE0BF02FFE0378174E3F2B07460ED1A1
:10B2E0001648174DFEF70CFE002456F83410284679
:10B2F0000134FEF705FE0A2CF7D10020F8BD002529
:10B3000056F835100522384613F082FB78B906EB63
:10B31000C5050C492D7908202A46FFF73BFA0A4B50
:10B3200083F85A5009F058FB09F04CFFE5E7013566
:10B330000A2DE5D10548E1E71C120208B4F901081D
:10B34000ACF20108C9F90108C0340020B0120208AB
:10B3500037B5FEF759FA0378303B092B02D90C4870
:10B3600003B030BD002401A901940BF0D7FD0028E3
:10B37000F5D0019D07492D1B18BF012508202A463D
:10B38000FFF708FA044B9D7509F026FB2046E7E716
:10B39000B0120208F6F90108C034002037B5FEF7F4
:10B3A00033FA0378303B092B02D90C4803B030BD87
:10B3B000002401A901940BF0B1FD0028F5D0019DF6
:10B3C00007492D1B18BF012508202A46FFF7E2F97F
:10B3D000044B5D7609F000FB2046E7E7B012020857
:10B3E0001FFA0108C034002037B5FEF70DFA0378C4
:10B3F000303B092B02D90C4803B030BD002401A911
:10B4000001940BF08BFD0028F5D0019D042DF2D89E
:10B41000082006492A46FFF7BDF9054B5D7509F07E
:10B42000DBFA2046E8E700BFB01202084DFA010837
:10B43000C034002010B5FEF7E7F90378303B092B44
:10B4400001D90E4810BD0A220021013810F0DEFD9E
:10B4500010F1800341F10001B3F5807F71F1000329
:10B460000446EED2082006492246FFF793F9054B21
:10B470001C7509F0B1FA0020E4E700BFB012020821
:10B4800072FA0108C034002010B590B00FA904462C
:10B49000FEF77EFA002828D1002C28D11E4908206A
:10B4A000FFF778F90F99087C8B784A780D90C87B64
:10B4B0000C90887B0B90487B0A90087B0990C87A97
:10B4C0000890887A0790487A0690087A0590C8799B
:10B4D0000490887903904879029008790190C9789E
:10B4E000009108200D49FFF755F910B010BD012C4F
:10B4F00001D10B49D3E7032C01D10A49CFE7022C34
:10B5000001D10949CBE7042C01D10849C7E77F2CB9
:10B51000C8D10749C3E700BF96FA010892FB0108AA
:10B52000C0FA0108EAFA010814FB01083EFB010811
:10B5300068FB01080A780378534003704A7843781F
:10B54000534043708A78837853408370CA78C378B5
:10B550005340C3700A790379534003714A794379A0
:10B56000534043718A79837953408371CA79C3798F
:10B570005340C3710A7A037A534003724A7A437A7A
:10B58000534043728A7A837A53408372CA7AC37A69
:10B590005340C3720A7B037B534003734A7B437B54
:10B5A000534043738A7B837B53408373CA7BC37B43
:10B5B0005340C373704710B50B7814786340037021
:10B5C00054784B786340437094788B7863408370F1
:10B5D000D478CB786340C37014790B7963400371DE
:10B5E00054794B796340437194798B7963408371CB
:10B5F000D479CB796340C371147A0B7A63400372B8
:10B60000547A4B7A634043728B7A947A63408372A4
:10B61000D47ACB7A6340C372147B0B7B6340037391
:10B62000547B4B7B63404373947B8B7B634083737E
:10B63000CB7BD27B5340C37310BD0000184B027804
:10B6400041799A5C02700279595C9A5C0271027AC3
:10B650009A5C0272027B9A5C027342784170417A72
:10B660009A5C595C4171417B4273595C4172817AA9
:10B670008278595C8170817B9A5C82728279595C94
:10B680008171C17A9A5C595C8273C27BC173C17942
:10B69000595CC172C178595C9B5CC171C3707047C1
:10B6A000781602082DE9F04385B001466846FEF79A
:10B6B000ECF86E4A6E4B9DF800709DF805806D4861
:10B6C0009DF80AE09DF80F6012F80890DC5D10F814
:10B6D0000E5010F806C084EA09046C408CEA040499
:10B6E0000C70C45D8CEA040913F808C08CEA090CDC
:10B6F00012F80E9013F80EE08CEA090C81F801C0E4
:10B7000010F808C09DF8098084EA0C0484EA0E044D
:10B7100012F806E012F8089084EA0E048C7085EAAC
:10B720000C04D55D9DF804709DF80EE065409C5DAD
:10B730009DF803606540DC5DCD7010F80E5010F888
:10B7400006C084EA09046C408CEA04040C71C45DF0
:10B750008CEA040913F808C08CEA090C12F80E9060
:10B760008CEA090C81F805C010F808C013F80EE047
:10B770009DF80D8084EA0C0484EA0E0412F806E0B9
:10B7800012F8089084EA0E048C7185EA0C04D55DE9
:10B790009DF808709DF802E065409C5D9DF807608B
:10B7A0006540DC5DCD7110F80E5010F806C084EADB
:10B7B00009046C408CEA04040C72C45D8CEA040930
:10B7C00013F808C08CEA090C12F80E9013F80EE07A
:10B7D0008CEA090C81F809C010F808C09DF80180B6
:10B7E00084EA0C0484EA0E0412F806E084EA0E04EB
:10B7F0008C7285EA0C04D55D9DF806E09DF80C700E
:10B8000065409C5D9DF80B606540CD7210F80E5050
:10B8100010F806C0DC5D12F8089084EA09046C4058
:10B820008CEA04040C73C45D10F808008CEA040967
:10B8300013F808C08CEA090C12F80E908CEA090C77
:10B8400081F80DC013F80EC09B5D44406840D55D83
:10B8500084EA0C0412F806C0454084EA0C045D40FA
:10B860008C73CD7305B0BDE8F08300BF7815020876
:10B8700078140208781602082DE9F041D4B0074682
:10B880005A9E90461C460D46002900F0D380002E9B
:10B8900000F0D080102200210DF2291008F08CFF5A
:10B8A0000021F0220EA8539108F086FF204601A93E
:10B8B000FEF76EF8044600285FD101980EA901300A
:10B8C0000CF0E0FC27B1102239460EA8FEF7F6FD79
:10B8D000424629460EA8FEF7F1FD1022002106A8D7
:10B8E00008F06AFF06A90EAA08460DF0B9FA9DF9FC
:10B8F0001830002B06AA4FF0000142DA137812F834
:10B90000010F01315B0043EAD0130F2902F8013C1B
:10B91000F4D19DF827305B0083F087038DF8273042
:10B92000539B102B3CD10DF2391206A8117810F858
:10B93000015B013B81EA050102F8011BF6D10DF222
:10B940002913102513F8012BD97B013D82EA01024E
:10B9500003F8012CF6D110220DF229110AA808F0E3
:10B96000C7F80EAA02A90AA80DF07AFA10222946F1
:10B9700006A808F021FF029B3360204654B0BDE8C2
:10B98000F081137812F8010F01315B0043EAD01304
:10B990000F2902F8013CF4D19DF827305B00BDE788
:10B9A0009DF91820002A06A94FF00F0034DA0A7812
:10B9B00011F8015F520042EAD512013801F8012C5A
:10B9C000F5D19DF82720520082F087025F1C8DF888
:10B9D00027200EAA1A44102FC3F10F054FF0800143
:10B9E00088BF002503F581730EA882F80111184461
:10B9F0002A4600213D440EF0A1FE53950DF2391266
:10BA000006A81023117810F8015B013B81EA0501BB
:10BA100002F8011BF6D192E70A7811F8015F520093
:10BA200042EAD512013801F8012CF5D19DF8272002
:10BA30005200CBE70224A0E72DE9F043BFB0144643
:10BA40008046F02201A80F460021994608F0B4FE76
:10BA500069462046FDF79CFF054640B9009801A9BC
:10BA600001300CF00FFC3C463E1BF6B21CB92846D8
:10BA70003FB0BDE8F08301AA09EB060108EB060020
:10BA8000103C0DF0EDF9A4B2EEE7000030B51A4B12
:10BA90001D68024685B00846002305F1100103EB3E
:10BAA000031401330C5D944221D103EB0313802A6C
:10BAB0001D4415D10023CDE90033CDE9023368B12F
:10BAC0006B467F221021FFF7B7FF0446102269461C
:10BAD000284608F00DF8204605B030BD0224F5E7F1
:10BAE00001461022284608F003F80024F3E70A2B49
:10BAF000D5D10324EFE700BFC41900207F2A1FB56A
:10BB0000144601D1042910D10023CDE90033CDE939
:10BB100002330A466B461021FFF78EFF18B96946BB
:10BB20002046FFF7B3FF04B010BD0320FBE7000081
:10BB3000074B1B78DB0709D4064BD3F840232AB9FF
:10BB400093F89604013818BF012070470120704710
:10BB50008013002084130020F8B52B4C94F8045176
:10BB6000012D06464DD0022D43D035B938B9D4E960
:10BB7000190104F16C0383E80300032537E0012871
:10BB80003FD00228F9D1214F84F8040107F5747ED3
:10BB9000BEE80F0007F57A7CACE80F009EE80300D2
:10BBA00094F8DA308CE8030087F8FB63C3B1D4F86B
:10BBB000F030E366C7F8EC3394F8753094F8F4206D
:10BBC00087F8F83394F8803084F8702087F8F933D8
:10BBD00097F81F2487F8E82340F20133A7F8FA33D7
:10BBE000002387F81E340AF0A1FAFEF7CFFC28469E
:10BBF000F8BD0028C1D184F8040135460AF096FA50
:10BC0000F5E70225F3E700BF900D00208413002024
:10BC10002DE9F04FA54EA64F336BBDB0109033B950
:10BC2000B6F80C31D7F82024013B5343336397F81F
:10BC300004311BB1042B44D0032172E30BF012FC3E
:10BC4000002841F0ED8197F80C313B80336B0D9368
:10BC500014A896F808310E9396F93950FDF748FD6F
:10BC6000149AD6F81031D31A0B93B6F81421BDF8F4
:10BC700054309B1A0FFA83F8B8F1000F9AB206DA23
:10BC80000B9B013B0B9302F57A730FFA83F896F83E
:10BC90001C41F36AB7F800900F93ACB901230C93E1
:10BCA00096F84030092B01F2F981DFE813F011001A
:10BCB00076000D018C01E6013902A50243039603CB
:10BCC00023040BF023FCBBE700230C930124E7E7DC
:10BCD0000023CDE91633CDE918338DF84A308DF8BD
:10BCE0004B300323ADF84C30724BD3F800A00AF56B
:10BCF000587B012158460BF097FB28B9BAF86033FE
:10BD000043F00303AAF860336B4B8DF870401B6857
:10BD10001F931023ADF8803013AB21930D9B249318
:10BD20000F9B25930E9B8DF8983001238DF8993049
:10BD30000B9B279349460C9B8DF8A4302846CDE9F0
:10BD40001DBA8DF87150ADF8A08006F0A5FC1CABB3
:10BD50002A902B9316A90DF14B030DF14A0224A84A
:10BD60000BF0A8FC014670B99DF84A10013906F0A5
:10BD7000CDFB00F1F0030DEB03004D4B10F8982CB8
:10BD800083F81F24AEE20C2840F00584494B1A6862
:10BD9000B2F8603343F003036CE1DFF820B1002117
:10BDA000442225A88DF84B108DF84C1024910EF0EC
:10BDB000C5FCDBF800301193184604210BF034FB6E
:10BDC000119B824658B93E4A11681846042201F573
:10BDD000587106F010FCDBF8003083F80CA0374BEC
:10BDE000374A1B681268052D04DD197A11B9B2F8BB
:10BDF00068131981CDE91732324B8DF858401B6812
:10BE000019934823ADF8683000231B930D9B1C93B6
:10BE10000F9B1D930E9B8DF8783001238DF87930A0
:10BE20000B9B1F9349460C9B8DF8843028468DF858
:10BE30005950ADF8808006F00FFD16AB2290239389
:10BE400024A913AB0DF14B021CA80BF033FC0146E7
:10BE5000002840F0A383DFF86480A4B19DF84B1064
:10BE6000013906F053FB00F1F0030DEB0300104B1A
:10BE700010F8602C83F81F240D4BD8F8000093F8BD
:10BE80001F1448229CE0022DD8F8000000F0148313
:10BE9000017AE3B241FA03F2D50704F10104F8D5BF
:10BEA000034A403382F81F34E6E700BF900D0020BC
:10BEB0008413002088190020541900207C190020C8
:10BEC0008C1900205C19002000215C2225A88DF827
:10BED0004A108DF84B1024910EF030FC4FF6FF7392
:10BEE000ADF84C300F23ADF84E30DFF8DCA2B74B85
:10BEF000DAF800B01A781192114658460BF094FA0D
:10BF0000119A60B9B24B1B684FF0FF31C3E9D811E9
:10BF1000C3F86813584603F5587106F06CFBDAF85D
:10BF200000301793AA4B8DF858401B681893A94B03
:10BF30008DF859501B6819936023ADF868300023C1
:10BF40001B933CB9A44A189213AB14221793ADF873
:10BF500068201B930D9B1C930F9B1D930E9B8DF8CC
:10BF6000783001238DF879300B9B1F9349460C9B49
:10BF70008DF884302846ADF8808006F087FC16AB3B
:10BF80002290239324A90DF14B030DF14A021CA822
:10BF90000BF090FB0146002840F000839DF84A100A
:10BFA000013906F0B3FA00F1F0030DEB03008B4BFF
:10BFB00010F8601C83F81F14844BDAF800001A781C
:10BFC00006F000FB8EE10023CDE91633CDE91833EE
:10BFD0008DF84A308DF84B300723ADF84C30804B4C
:10BFE000D3F800A00AF5587B012158460BF01CFA43
:10BFF00028B9BAF8603343F00703AAF86033794BE5
:10C000008DF870401B681F931023ADF8803013AB80
:10C0100021930D9B24930F9B25930E9B8DF89830B5
:10C0200001238DF899300B9B279349460C9B8DF883
:10C03000A4302846CDE91DBA8DF87150ADF8A08026
:10C0400006F02AFB1CAB2A902B9316A90DF14B038B
:10C050000DF14A0224A80BF02DFB014600283FF405
:10C0600083AE0C2840F097825D4B1A68B2F86033BB
:10C0700043F00703A2F8603353E10023CDE9163300
:10C08000CDE918338DF84A308DF84B300723ADF8E1
:10C090004C30554BD3F800A00AF5587B0121584687
:10C0A0000BF0C2F928B9BAF8603343F00703AAF8D5
:10C0B00060334E4B8DF870401B681F931023ADF812
:10C0C000803013AB21930D9B24930F9B25930E9BE4
:10C0D0008DF8983001238DF899300B9B27934946B2
:10C0E0000C9B8DF8A4302846CDE91DBA8DF871500F
:10C0F000ADF8A08006F0D0FA1CAB2A902B9316A9BD
:10C100000DF14B030DF14A0224A80BF0D3FA0146BE
:10C1100000283FF429AE0C2840F03D82324BA4E7C2
:10C120000023CDE91633CDE918338DF84A308DF868
:10C130004B300723ADF84C302D4BD3F800A00AF557
:10C14000587B012158460BF06FF928B9BAF86033D3
:10C1500043F00703AAF86033264B8DF870401B6844
:10C160001F931023ADF8803013AB21930D9B2493C4
:10C170000F9B25930E9B8DF8983006238DF89930F0
:10C180000B9B279349460C9B8DF8A4302846CDE99C
:10C190001DBA8DF87150ADF8A08006F07DFA1CAB89
:10C1A0002A902B9316A90DF14B030DF14A0224A8F6
:10C1B0000BF080FA014600283FF4D6AD0C2840F081
:10C1C000EA810B4B51E700BF801900206005002079
:10C1D000901900206019002018000020841300200E
:10C1E0009419002064190020981900206819002073
:10C1F0009C1900206C1900200023CDE91633CDE9ED
:10C2000018338DF84A308DF84B300723ADF84C3099
:10C21000AE4BD3F800A00AF5587B012158460BF02D
:10C2200003F928B9BAF8603343F00703AAF860337A
:10C23000A74B8DF870401B681F9313AB21930D9B88
:10C2400024930F9B25930E9B8DF8983001238DF836
:10C2500099300B9B279349460C9B8DF8A4301024F2
:10C260002846CDE91DBA8DF87150ADF88040ADF883
:10C27000A08007F05DFA1CAB2A902B9316A90DF154
:10C280004B030DF14A0224A80BF014FA01460028D2
:10C290004BD19DF84A10DFF83492DFF838B20139FB
:10C2A00006F034F94FF00C0AC5B205F1F0036B4407
:10C2B0009DF84A0013F8988C01350AFB08FCB5FB81
:10C2C000F0F300FB1355D9F80000062350F80C00DA
:10C2D0006FF040025946EDB209F0E4FEE0B17E4B4A
:10C2E00083F81F847D4A92F8400092F8754092F9D5
:10C2F000391092F8613092F96120092800F27081BA
:10C30000DFE810F0690172017E01E101E101E10164
:10C31000E1018601DD01E101013C14F0FF04C4D11B
:10C320000D2108463DB0BDE8F08F0C2840F0368165
:10C33000664B9AE60023CDE91633CDE918338DF824
:10C340004A308DF84B300723ADF84C30644BD3F8AE
:10C3500000A00AF5587B012158460BF065F828B972
:10C36000BAF8603343F00703AAF860335D4B8DF8E9
:10C3700070401B681F931023ADF8803013AB2193DE
:10C380000D9B24930F9B25930E9B8DF898300123D2
:10C390008DF899300B9B279349460C9B8DF8A43060
:10C3A0002846CDE91DBA8DF87150ADF8A08006F091
:10C3B00073F91CAB2A902B9316A90DF14B030DF1C9
:10C3C0004A0224A80BF076F9014600283FF4CCACD1
:10C3D0000C2840F0E080424B47E6DFF80CB100212A
:10C3E000442225A88DF84B108DF84C1024910EF0A6
:10C3F000A5F9DBF800301193184604210BF014F86E
:10C40000119B824658B9394A11681846042201F531
:10C41000587106F0F0F8DBF8003083F80CA0324BCE
:10C42000324A1B681268032D04DD197A11B9B2F87B
:10C4300068131981CDE917322D4B8DF858401B68D0
:10C4400019934823ADF8683000231B930D9B1C9370
:10C450000F9B1D930E9B8DF8783001238DF879305A
:10C4600016AB23930B9B1F9349460C9B8DF884308E
:10C4700028468DF85950ADF8808007F01FFB24A99D
:10C48000229013AB0DF14B021CA80BF013F90146DF
:10C49000002840F08380DFF85080002C7FF4DEAC71
:10C4A000D8F8000045B1017AE3B241FA03F2D007AF
:10C4B00004F10104F8D5F3E400F10C010BF0B4F839
:10C4C000032801467FF4D8AC2BE700BFA419002055
:10C4D00074190020400D030084130020900D0020EB
:10C4E000A01900207019002084190020AC19002028
:10C4F000581900200023CDE916338DF84A308DF805
:10C500004B300323ADF84C30704BD3F800A00AF544
:10C51000587B012158460AF087FF28B9BAF86033E2
:10C5200043F00303AAF86033694B8DF870401B6831
:10C530001F930823ADF8803013AB21930D9B2493F8
:10C540000F9B25930E9B8DF8983001238DF8993021
:10C550000B9B279349460C9B8DF8A4302846CDE9C8
:10C560001DBA8DF87150ADF8A08006F095F81CAB9F
:10C570002A902B9316A90DF14B030DF14A0224A822
:10C580000BF098F8014600283FF4EEAB0C2802D1DE
:10C590004E4BFFF7FCBB00293FF4A4AE0B297FF400
:10C5A000C0AE109B002B3FF4BCAE4A4CD4F898149C
:10C5B00000293FF4B6AED4F8403304F55A7043F086
:10C5C0002003C4F840330CF07BFD04F55A700CF0E6
:10C5D00093FC0021A5E6C90024B93F4B19448956B4
:10C5E000C9B21FE03D4BF9E73D4B062505FB013184
:10C5F00089560029F4DA002C0CBF00210221EFE754
:10C60000384B062404FB0131895621EAE171E7E742
:10C61000354B03EBC1039B56002B4EDB062908BFAD
:10C620000023D9B2314C0094736C96F8482049B27B
:10C63000183406F085F80094736C96F9681096F833
:10C64000400096F8482006F07BF8D7F8C443336DD5
:10C65000D7F8DC03716D2344C7F8B03396F81C316A
:10C660000144C7F8B413002B40F01B85B26DF36D85
:10C6700022440344C7F8B023C7F8B433154A92F8EC
:10C680001F340B931A4B168893F8409093F9394056
:10C6900093F938509F6FD3F87C80B9F1090F00F2FD
:10C6A000B184DFE819F029000C015C01E3014902C3
:10C6B000AA020B038D03EE034E040023B1E70D4BDA
:10C6C00003EB8101A0E7C91A49B29EE7A81900202F
:10C6D00078190020841300201D1102085D11020842
:10C6E000701002089A1002089D1102083C170020E1
:10C6F000900D0020CA100208CB4BCC491B570C935D
:10C70000CB4BD3F800B00B9B4FF00C0A0AFB03FA9B
:10C710000BEB0A0320465B7A03EB4302C54B1B6815
:10C7200003EBC20393F902309D42B8BF1D4605F0EA
:10C73000A1FF424639460D90284605F085FF074681
:10C740005BF80A0005F010FC00204FF47A62072C19
:10C75000CDE90702CDE905000D9B40F0A380012241
:10C76000CDE903020C990522CDE901024FF47A725A
:10C770005143009146F2A812394608F09BFBAC4B9E
:10C780000B991A680C234B432146D05806F0B6F893
:10C790003146204605F080FFA74BF1B2C3F82004D4
:10C7A000484608F02DFCA44CA44BD4F8202493F860
:10C7B0003930C4F84C24C4F85C2494F8042184F87B
:10C7C000463401260B9B84F8456484F84754C4F82A
:10C7D0005434002A00F01984042A7FF42DAA984FBB
:10C7E00094F81C243B68DB68002A40F045845D1CFB
:10C7F00080F0168494F82821002A14BF0322022214
:10C800009D4200F23C840AF081FE002840F008843A
:10C8100094F80C61D4F80811043EB2B2002900F07B
:10C82000FF83B2F5807F00F2FB83D4F810318DF8DE
:10C8300096304FF0490C8DF890C04FEA132C8DF8CC
:10C8400097C04FEA134C1B0E8DF899302B0A8DF8C8
:10C850009B302B0C8DF89C302B0E8DF89D30794B36
:10C860008DF891008DF892008DF893008DF894006A
:10C870008DF895008DF89E00009324A802238DF872
:10C8800098C08DF89A508DF89F60FEF7F5FF00284C
:10C8900040F0C6830AF03AFE002840F0C1833B68AE
:10C8A000DD60CFE34FF001090822CDE901920C9A37
:10C8B0000092CDE903090246394648465DE7624BDE
:10C8C000DFF888A11B570C930B9BDAF800B0604A85
:10C8D000604912684FF00C0909FB03F90BEB0903DF
:10C8E00020465B7A03EB430302EBC30393F9023068
:10C8F0009D42B8BF1D4605F0BDFE424639460D902B
:10C90000284605F0A1FE80465BF8090005F02CFBE7
:10C9100000224FF47A61CDE9072101270C9B009397
:10C920000821CDE90522CDE90327CDE901710D9B51
:10C930004146384608F0BEFADAF80030214653F88E
:10C94000090005F0DBFFF1B2384608F059FB31462B
:10C95000204605F081FF384BC3F8200423E73E4B07
:10C9600013F904A0354B93F81C210C23002A48D05E
:10C970003A4A12680B994B43D11852F80390384A3F
:10C980004B7A1268374903EB430302EBC30320469B
:10C9900093F902309D42B8BF1D4605F06BFE394643
:10C9A00042468346284605F04FFE0C90484605F067
:10C9B000DBFA00274FF47A63072CCDE90773CDE942
:10C9C00005770C991FD10123CDE903730523CDE928
:10C9D00001734FF47A7303FB0AF3009346F2A81233
:10C9E0005B46384608F066FA2146484605F086FF61
:10C9F000F1B2384608F004FB3146204605F046FF08
:10CA0000A9E7194AB6E74FF001080823CDE90378F2
:10CA1000CDE901833A46CDF800A05B46404608F0D8
:10CA200049FA4746E0E700BFDE100208840F02081B
:10CA3000881900205419002084130020900D002034
:10CA4000F0070020B8140020E61002088C1900201E
:10CA50005C190020A40F0208DE10020890190020C3
:10CA600060190020E40F020818000020C24BC349DF
:10CA700013F904A0C24BD3F800B00B9B4FF00C0984
:10CA800009FB03F90BEB090320465B7A03EB430236
:10CA9000BC4B1B6803EBC20393F902309D42B8BF45
:10CAA0001D4605F0E7FD424639460C90284605F044
:10CAB000CBFD07465BF8090005F056FA00204FF45D
:10CAC0007A62072CCDE90702CDE905000C9B24D141
:10CAD0000122CDE903020522CDE901024FF47A7269
:10CAE00002FB0AF20092394646F2A81208F0E2F977
:10CAF00000208046A24B0B991A680C234B43214619
:10CB0000D05805F0FBFE3146204605F0C5FD9E4B92
:10CB1000F1B2C3F82004404643E64FF00108082272
:10CB2000CDE90308CDE90182CDF800A002463946DF
:10CB3000404608F0BFF9DDE7944B954913F904A08E
:10CB4000944BD3F800B00B9B4FF00C0909FB03F991
:10CB50000BEB090320465B7A03EB43028E4B1B6809
:10CB600003EBC20393F902309D42B8BF1D4605F0A6
:10CB700081FD424639460C90284605F065FD074682
:10CB80005BF8090005F0F0F900204FF47A62072CF9
:10CB9000CDE90702CDE905000C9B1FD10122CDE9AB
:10CBA00003020522CDE901024FF47A7202FB0AF278
:10CBB0000092394646F2A81208F07CF9002080461F
:10CBC000744B0B991A680C234B432146D05805F03F
:10CBD00095FE3146204605F05FFD98E74FF00108CD
:10CBE0000822CDE90308CDE90182CDF800A0024674
:10CBF0003946404608F05EF9E2E7684B684913F9A8
:10CC000004A0684BD3F800B00B9B4FF00C0909FB54
:10CC100003F90BEB090320465B7A03EB4302624BFB
:10CC20001B6803EBC20393F902309D42B8BF1D4657
:10CC300005F020FD424639460C90284605F004FDDB
:10CC400007465BF8090005F08FF900204FF47A627F
:10CC5000072CCDE90702CDE905000C9B1FD101226D
:10CC6000CDE903020522CDE901024FF47A7202FBFD
:10CC70000AF20092394646F2A81208F01BF9002089
:10CC80008046484B0B991A680C234B432146D058D9
:10CC900005F034FE3146204605F0FEFC37E74FF044
:10CCA00001080822CDE90308CDE90182CDF800A0F2
:10CCB00002463946404608F0FDF8E2E73B4B3C4966
:10CCC0001B570C933B4BD3F800A00B9B4FF00C0968
:10CCD00009FB03F90AEB090320465B7A03EB4302E5
:10CCE000354B1B6803EBC20393F902309D42B8BF7A
:10CCF0001D4605F0BFFC5AF8099083462F48814530
:10CD000094BF0A200E20FCF7E9FA82460146384615
:10CD1000FCF748F800B1BA4642465146284605F0AD
:10CD200093FC8046484605F01FF900224FF47A63D1
:10CD30000127CDE907230823CDE901730C9B00935C
:10CD4000CDE90522CDE903275B464146384608F088
:10CD5000B1F8184B0B991A680C234B432146D05855
:10CD600005F0CCFDF1B2384608F04AF931462046CC
:10CD700006F0DEFCEFE500BFDE100208840F0208BB
:10CD8000941900206419002084130020DE1002088A
:10CD9000840F02089819002068190020DE1002088C
:10CDA000840F02089C1900206C190020F61002085C
:10CDB00004100208A4190020741900201F21F6365F
:10CDC000C04BC14913F904A0C04BD3F800B00B9B72
:10CDD0004FF00C0909FB03F90BEB090320465B7AC2
:10CDE00003EB4302BA4B1B6803EBC20393F9023017
:10CDF0009D42B8BF1D4605F03DFC424639460C90A9
:10CE0000284605F021FC07465BF8090005F0ACF860
:10CE100000204FF47A62072CCDE90702CDE9050026
:10CE20000C9B1FD10122CDE903020522CDE90102AD
:10CE30004FF47A7202FB0AF20092394646F2A812C7
:10CE400008F038F800208046A04B0B991A680C2394
:10CE50004B432146D05805F051FD3146204605F0A0
:10CE60001BFC54E64FF001080822CDE90308CDE988
:10CE70000182CDF800A002463946404608F01AF873
:10CE8000E2E7944BDFF850A213F904B0DAF800702F
:10CE9000042C3AD1022DB8BF02259049204605F056
:10CEA000E9FB8F490C900022284605F0CDFB0B9B37
:10CEB0004FF00C0808FB03F8814657F8080005F00E
:10CEC00053F8012700224FF47A630821CDE90723A4
:10CED000CDE90522CDE90327CDE901710C9BCDF801
:10CEE00000B04946384607F0E5FFDAF80030214641
:10CEF00053F8080005F002FDF1B2384608F080F85A
:10CF00003146204606F0DAFD25E50B9A0C2303FB9B
:10CF10000273744A5B7A126803EB430302EBC303A8
:10CF2000042107F5587093F902800AF07DFA312840
:10CF300003D94545B8BF4546AFE7052DB8BF052520
:10CF4000ABE7694B694913F904A0694BD3F800B00A
:10CF50000B9B4FF00C0909FB03F90BEB090320466F
:10CF60005B7A03EB4302634B1B6803EBC20393F949
:10CF700002309D42B8BF1D4605F07CFB4246394653
:10CF80000C90284605F060FB07465BF8090004F0AA
:10CF9000EBFF00204FF47A62072CCDE90702CDE9C0
:10CFA00005000C9B1FD10122CDE903020522CDE92A
:10CFB00001024FF47A7202FB0AF20092394646F2FD
:10CFC000A81207F077FF00208046494B0B991A689A
:10CFD0000C234B432146D05805F090FC31462046A7
:10CFE00005F05AFB93E54FF001080822CDE903084C
:10CFF000CDE90182CDF800A002463946404607F04F
:10D0000059FFE2E70025FFF7CEBB3B4B19688A8842
:10D01000013292B28A80A4F81E210AF023FA10B1DC
:10D020001121FFF77EB904F590730093D4F808112D
:10D0300033461322FEF720FC0028F1D10AF012FA41
:10D040000028EDD194F80C312380D4F840332178B6
:10D050002A4843F00203C4F8403394F81C340133E7
:10D06000DBB2002584F81C3484F84934C4F89C549D
:10D0700008F058FFFFF7ADBA1D46FFF7BBBB002312
:10D0800001950093D4F8103194F83011D4F82C01A4
:10D0900005F08EF900283FF4B6ABC1E70921FFF790
:10D0A00040B9174B96F9390097F8374293F8085270
:10D0B000FCF7BCFC2C4480B2A042BFF4DFAA0821DC
:10D0C000FFF72FB9DE100208840F0208A019002014
:10D0D00070190020FC100208AC1900201C10020876
:10D0E0000000F04158190020DE100208840F0208E9
:10D0F000A819002078190020F007002086130020CE
:10D100008405002070B5194C04F55A700BF036FFF9
:10D11000D4F84033D4F89C0423F02003C4F84033FF
:10D1200050B1134DD5F88460FDF787FA864203D2DB
:10D13000002385F83A3070BD0120FEF769FD002814
:10D14000F9D00B28F7D00A4B93F8393084F84634DD
:10D15000092094F81C3484F8493484F8450405F017
:10D1600001F9BDE870400BF023BE00BF841300201E
:10D17000900D00207FB5354C354DB4F8CC2022877A
:10D18000D4E92A0194F8A52084F8612004F164020E
:10D1900082E80300D4E92C01012304F16C0282E847
:10D1A0000300A4F80C31B4F8B8208DF80C3004F565
:10D1B000F273A4F874200093D4F8BC20A26704F59D
:10D1C000FC730026D4F8C0200193224BE26784F858
:10D1D0001C61A662C5F89C6484F80761A5F81C640C
:10D1E00085F81E6484F83A6084F8096184F80A615D
:10D1F0006946029394F8400006F05EFD636EC5F840
:10D20000D43394F8753085F8E03394F8803085F89D
:10D21000E1334FF48073A5F8E23385F8D06394F8D6
:10D220001C3185F81F6405F5747685F8E4330FCE5C
:10D2300005F57A740FC496E8030040F2012384E8F0
:10D240000300A5F8FA3304B070BD00BF900D0020B4
:10D2500084130020C418002008B5FEF769FC064BB3
:10D2600018B90122C3F8402308BDD3F840030138A0
:10D2700018BF0120F8E700BF841300201FB5044643
:10D280000078392800F2BA80DFE800F01D23282C4E
:10D29000303438B8B8B8B8B8B8B8B83C40444F57CC
:10D2A0005A5D626064686B6E717477868A928E963E
:10D2B000999DA5A1A3B8A9B8B8B8B8B8B8B8B8B876
:10D2C000B8B8B8B8B0B44E4B93F80431237104B079
:10D2D00010BD4B4B93F81C3123712CE0494B1B685C
:10D2E000636028E0474B1B680833F9E7444B93F829
:10D2F0000631F1E7424BD3F8D030F1E7404BD3F899
:10D30000D430EDE73E4B93F80531E5E73C4B93F81D
:10D310008030E1E71C238DF80830394B02A993F8DF
:10D32000400005F0B7FD606005E0374B043493E83A
:10D33000030084E803000020C9E7344B0434F6E717
:10D34000334B0434F3E7334B0434F0E71A23E2E7BA
:10D350001923E0E72A4B93F86030BDE7284BDB6CDC
:10D36000BEE7274B1B6DBBE7254B5B6DB8E7244B36
:10D370009B6DB5E7224BDB6DB2E702238DF80830D9
:10D380001F4B02A993F8742093F840008DF80A20EF
:10D3900005F080FD2071CEE7194B93F8CD309BE767
:10D3A000174B93F8393097E7154B93F8CC3093E748
:10D3B000134B93F838308FE7114B5B6C90E7104BB1
:10D3C00093F8483088E70E4BDB6F6360B3E70C4B94
:10D3D00086E7114B84E70A4BD3F8C030F5E7084BDA
:10D3E000D3F8183163600D4BA360A4E7044BD3F866
:10D3F000843075E7024B93F80B316DE7022066E746
:10D40000900D0020C4190020F40D0020380E0020DB
:10D41000FC0D0020400E0020000800200100010249
:10D4200000B58BB0012301A88DF80430FFF726FF6B
:10D4300038B99DF80800003818BF01200BB05DF81E
:10D4400004FB0020FAE7000070B50B4621490122D9
:10D450000A7042784A708CB00446002A37D10279AB
:10D460000A721A884A729A788A72DB780B74036996
:10D47000CB60C378184D8DF80430037B8DF80530F0
:10D48000836802932B6801A8DB6A98472B689B6B23
:10D4900013B1227E02B19847104E052556F8043B81
:10D4A0001BB1DB690BB120469847013D15F0FF0524
:10D4B000F4D103A88DF80C50FFF7E0FE08B99DF8F1
:10D4C00010506379012B02D10DB9054A13700CB0CD
:10D4D00070BD00BF50010020201300202413002045
:10D4E000FC070020F0B504463048314E314F002390
:10D4F000037063784370336893B09B6A984705253F
:10D5000057F8043B1BB11B6A0BB120469847013DFD
:10D5100015F0FF05F4D12378042B37D00B2B3DD029
:10D52000012B2ED1062368468DF80030FFF7A6FEAA
:10D53000214B019A5A6109A820238DF82430FFF766
:10D540009DFE1E4B20B91E499DF928201A710A71B3
:10D550006278C2B95A711A4B58780BF04BFC336899
:10D5600016485B6A984763785BB90420FDF78CFF27
:10D570007F20FDF789FF0220FDF786FF0320FDF7DE
:10D5800083FF13B0F0BDFF225A71E8E70D4B012273
:10D590005A74227A9A74627ADA74F2E76378002B0A
:10D5A000EFD013B0BDE8F040FCF72CBB68010020C1
:10D5B0002013002024130020000000204001002040
:10D5C000381300205001002073B59B4DD5F840332F
:10D5D0009A07044600F1E2820278392A00F2DA82E0
:10D5E000DFE812F03A004700500059006100660081
:10D5F0006B0070007B00800085008A008F00940023
:10D6000099009E00A700D802AC00CC00DF00050105
:10D6100052011801D301DC01E001E401E801EC0151
:10D62000D802F00102022A0218023C024202490218
:10D630004D026E02D802C102D802D802D802D80226
:10D64000D802D802D802D802D802D802D802D8020A
:10D65000D802D802CE02D3020079FEF77DFA002864
:10D6600039D195F8953443F0400385F8953400207E
:10D6700031E00379022B01D103202CE06F4A82F8BC
:10D680001C31EEE741680029F6D06D4B186808227E
:10D6900006F02EFAE5E741680029EDD0684B1868DE
:10D6A00008221044F4E7654B027983F80621D8E795
:10D6B000624B4268C3F8D020D3E7604B4268C3F89E
:10D6C000D420CEE741680029D6D0002004F008FF1E
:10D6D0000028C6D0112002B070BD41680029CBD00F
:10D6E0000120F3E741680029C6D00220EEE7416837
:10D6F0000029C1D00320E9E741680029BCD07F2080
:10D70000E4E741680029B7D08020DFE741680029BD
:10D71000B2D08120DAE741680029ADD08220D5E778
:10D72000464B007983F8050104F058FC08F0FEFC34
:10D7300097E7424B027983F8802092E73F4E037AC5
:10D740008DF8043096F8400096F875308DF8053065
:10D75000072201A906F018F800288DD0636896F812
:10D7600040000193002201A906F00EF8002883D0A2
:10D770006436D4E9010186E8030072E72F4E037A8C
:10D780008DF8043096F8400096F875308DF8053025
:10D79000072201A905F0F8FF00283FF46DAFA83675
:10D7A000E7E7264E037A8DF8043096F8400096F8A5
:10D7B00075308DF80530072201A905F0E5FF002836
:10D7C0003FF45AAFD4E9010106F16C0383E803008A
:10D7D00096F80431022B7FF444AF96F81C31002BED
:10D7E0003FF43FAF08F0A2FCFCF7D0FE39E7134E40
:10D7F000037A8DF8043096F8400096F875308DF86D
:10D800000530072201A905F0BFFF00283FF434AF1F
:10D81000B036AEE7094B446893F84030092B3FF629
:10D820002BAFDFE803F005111A1C1E202224262F3F
:10D83000044B186801220AE084130020900D002098
:10D84000C4190020881900208F4B18680622214631
:10D8500000F55B7004F0CFFE03E78C4BF5E78C4BD3
:10D86000E7E78C4BE5E78C4BE3E78C4BE1E78C4B30
:10D87000DFE70421204609F0D7FD01283FF4FCAE84
:10D88000884BE2E7884BD4E7884B446893F84030F4
:10D89000092B3FF6F1AEDFE803F0050C2C454749B4
:10D8A0004B4D4F76824B18680122214600F5587087
:10D8B000D0E7754E30680622214600F5587004F016
:10D8C0009AFE336893F87423A3F874230022A3F814
:10D8D0007623784A126803F55873911E0A3231F89C
:10D8E000024F33F8020B914200EA04000880F6D19F
:10D8F000B7E6664E30680622214600F5587004F0FF
:10D900007AFE6D4B31681A6801F55871931E0A3220
:10D9100033F8024F31F8020B9A4200EA04001880F3
:10D92000F6D19EE65A4BBEE75A4BBCE75A4BBAE7D4
:10D930005A4BB8E75A4BB6E70421204609F074FD6C
:10D9400001283FF499AE574E30680622214600F573
:10D95000587004F050FE336893F87423A3F87423CE
:10D960000022A3F87623554A116803F558738A1EDE
:10D970000A3132F8024F33F8020B914200EA0400F8
:10D980001080F6D16DE6484B8DE703795A1E0E2ABA
:10D990003FF672AE454A82F8603062E6434B426819
:10D9A000DA645EE6414B42681A655AE63F4B4268CC
:10D9B0005A6556E63D4B42689A6552E63B4B4268D3
:10D9C000DA654EE6394C037994F840008DF804305E
:10D9D000062201A905F0D8FE00283FF44DAE9DF8BF
:10D9E000043084F8CD303CE6304C03798DF80430B7
:10D9F00094F8400094F874308DF80630052201A99F
:10DA000005F0C2FE00283FF437AE9DF8043084F8DC
:10DA1000393026E6254C037994F840008DF804301F
:10DA20000A2201A905F0B0FE00283FF425AE9DF8BA
:10DA3000043084F8CC3014E61C4C037994F8400090
:10DA40008DF80430092201A905F09EFE00283FF45C
:10DA500013AE9DF8043084F8383002E6134B426868
:10DA6000C3F888205A64FCE5104B027983F88C20B7
:10DA700083F84820F5E50D4B4268DA67F1E50B4B7A
:10DA80004268C3F8C020ECE58C19002090190020F2
:10DA900094190020981900209C190020A419002036
:10DAA000A0190020AC190020A8190020900D00201A
:10DAB000881900207C19002080190020841900207A
:10DAC000012B6BD1364C2421204606F06BFF636A94
:10DAD000834261D1142104F1280006F063FFE36B57
:10DAE000834259D1E02104F1400006F05BFFD4F8F5
:10DAF0002031834250D1BC2104F5927006F052FFD0
:10DB0000D4F8E031834247D1102104F5F27006F0D9
:10DB100049FFD4F8F43183423ED1142104F5AF60BB
:10DB200006F040FFD4F88C35834235D11D4E4FF4BA
:10DB3000B2622146304605F0DBFF4FF4B2620021AD
:10DB4000204606F039FE95F81F3485F8E833F36E69
:10DB5000C5F8EC3396F8753085F8F83340F20123B8
:10DB6000A5F8FA337DE58379012B3FF685AD0D4BA2
:10DB70004268C3F818210C4B42681B681A6070E5B4
:10DB8000084B4268C3F884206BE5064B027983F8A2
:10DB90000B2166E502209EE517209CE501209AE511
